:020000040800F2
:10000000A071002471030008E7420008D73D0008F2
:10001000E5420008CD050008DF6A00080000000086
:10002000000000000000000000000000B102000815
:10003000CF050008000000000D0300081D5F000848
:100040008B0300088B0300088B0300088B03000858
:100050008B0300088B0300088B0300088B03000848
:100060008B0300088B0300088B0300088B03000838
:100070008B0300088B0300088B0300088B03000828
:100080008B0300088B0300088B0300088B03000818
:100090008B0300088B0300088B0300088B03000808
:1000A0008B0300088B0300088B0300088B030008F8
:1000B0008B0300088B0300088B0300088B030008E8
:1000C0008B0300088B0300088B0300088B030008D8
:1000D0008B0300088B0300088B0300088B030008C8
:1000E0008B0300088B030008000000008B0300084E
:1000F0008B0300088B0300088B0300088B030008A8
:100100008B030008294500088B0300088B030008B7
:100110008B0300088B0300088B0300088B03000887
:100120008B0300088B0300088B0300088B03000877
:100130008B0300088B0300088B0300088B03000867
:1001400000000000000000000000000000000000AF
:100150008B0300088B0300088B0300088B03000847
:100160008B0300088B0300088B0300088B03000837
:100170008B0300088B0300088B0300088B03000827
:100180008B0300088B0300088B0300088B03000817
:100190008B0300088B0300088B0300088B03000807
:1001A0008B0300088B0300088B0300088B030008F7
:1001B0008B0300088B0300088B0300088B030008E7
:1001C0008B0300088B0300088B0300088B030008D7
:1001D0008B0300088B0300088B0300088B030008C7
:1001E0008B0300088B0300088B0300088B030008B7
:1001F0008B0300088B0300088B0300088B030008A7
:100200008B0300088B0300088B0300088B03000896
:100210008B030008F56000088B0300088B030008BF
:100220008B0300088B0300088B030008000000000C
:100230008B0300088B030008000000008B030008FC
:100240008B0300088B0300088B0300088B03000856
:100250008B0300088B0300088B0300088B03000846
:100260008B0300088B0300088B0300088B03000836
:100270008B0300088B0300088B03000800000000BC
:100280008B0300088B0300088B03000800000000AC
:10029000000000008B030008DFF810D000F0EEF83B
:1002A00000480047896D0008AFF30080A07100246A
:1002B0002C4B19680868B0E8F04F80F30988BFF349
:1002C0006F8F4FF0000080F311887047000000002E
:1002D00008480068006880F308884FF0000080F349
:1002E000148862B661B6BFF34F8FBFF36F8F00DF24
:1002F00000BF00BF08ED00E0DFF80C00016841F42A
:1003000070010160704700BF88ED00E0EFF30980E5
:10031000BFF36F8F134B1A681EF0100F08BF20ED4C
:10032000108A20E9F04F106009B44FF0500080F3BC
:100330001188BFF34F8FBFF36F8F07F027FD4FF08A
:10034000000080F3118809BC19680868B0E8F04F14
:100350001EF0100F08BFB0EC108A80F30988BFF3BD
:100360006F8F7047BC000024EFF3058070470000DA
:100370000648804706480047FEE7FEE7FEE7FEE73F
:10038000FEE7FEE7FEE7FEE7FEE7FEE7196000088E
:10039000990200082DE9F05F0546002092469B4631
:1003A00088460646814640241BE02846414647468B
:1003B000224600F053F853465A46C01A914110D3D2
:1003C00011461846224600F03AF82D1A67EB01084C
:1003D0004F4622460120002100F031F817EB0009BA
:1003E0004E41201EA4F10104DFDC484631462A4676
:1003F0004346BDE8F09F40EA01039B0703D009E0B4
:1004000008C9121F08C0042AFAD203E011F8013B00
:1004100000F8013B521EF9D27047D2B201E000F859
:10042000012B491EFBD270470022F6E710B5134698
:100430000A4604461946FFF7F0FF204610BD202A61
:1004400004DB203A00FA02F1002070479140C2F12B
:10045000200320FA03F3194390407047202A04DB5D
:10046000203A21FA02F00021704721FA02F3D0402D
:10047000C2F120029140084319467047064C074DCF
:1004800006E0E06840F0010394E807009847103464
:10049000AC42F6D3FFF704FFEC9300080C9400087D
:1004A00070B58C1810F8015B15F0070301D110F836
:1004B000013B2A1106D110F8012B03E010F8016B63
:1004C00001F8016B5B1EF9D12B0705D40023521EE6
:1004D0000DD401F8013BFAE710F8013BCB1A921C4E
:1004E00003E013F8015B01F8015B521EF9D5A1424C
:1004F000D8D3002070BD00000146014802F0DCB8EE
:1005000090060024044810B502F0E8F8042801D051
:10051000012010BD002010BD9006002410B500F091
:1005200015F8012801D0022010BD074802F072FA28
:10053000040006D104484FF4804101F019FF00B1D6
:100540000124204610BD00009006002408B50120BB
:100550008DF800009DF8000008BD000013460A4613
:1005600010B500240146034802F062FB00B10124EB
:10057000204610BD9006002408B5012069460023DE
:10058000ADF800001A460248406806F025FD08BD97
:100590009800002413460A4610B50024014603487B
:1005A00002F0BAFB00B10124204610BD90060024E1
:1005B00008B5022069460023ADF800001A4602483B
:1005C000406806F009FD08BD98000024FEE770476A
:1005D00072B6FEE7002200F001B800000E4B70B5C5
:1005E00005465C7A0120002C14D15E7A03F10800E4
:1005F0009C555E7A03EB860675605D7A2A54587ABC
:10060000421C5A723A232F22303008704B70204619
:100610008A70CC7070BD0000BC08002470B5044620
:1006200000F038F90546601C02D004480078044404
:1006300000F030F9401BA042FAD370BDA80000249E
:100640002DE9F84F03247D4D00234FF001094FF0B1
:10065000B04B4FF00F0AE9E009FA03F73A4076D0C1
:100660000E7906F00306012E01D0022E18D1D0F823
:1006700008C04FEA430ECE6804FA0EF82CEA080CC4
:1006800006FA0EF646EA0C068660D0F804C00E792B
:100690002CEA070CC6F300169E4046EA0C0646609C
:1006A0000E79F643B6070BD0C6684FEA43088F6849
:1006B00004FA08FC26EA0C0607FA08F73743C76075
:1006C0000E7906F00306022E12D1DE080F694FEAFA
:1006D000437C00EB8606B646366A4FEADC6C0AFAC3
:1006E0000CF807FA0CF726EA08063743CEF8207014
:1006F0000F7906684FEA430807F0030704FA08FC7D
:1007000007FA08F726EA0C06374307604E6816F426
:10071000403F1CD04A4E376847F0020737603668C2
:100720009F0706F00206009623F0030606F1B04686
:10073000B6463F0FD6F80864DFF808810AFA07FCCE
:10074000404526EA0C0603D14FF0000C41E06CE076
:10075000DFF8F4C0604502D14FF0010C39E0DFF85A
:10076000ECC0604502D14FF0020C32E0DFF8E0C08F
:10077000604502D14FF0030C2BE0DFF8D8C0604594
:1007800002D14FF0040C24E0DFF8CCC0604502D168
:100790004FF0050C1DE0DFF8C4C0604502D14FF0FA
:1007A000060C16E0DFF8B8C0604502D14FF0070C28
:1007B0000FE0DFF8B0C0604502D14FF0080C08E050
:1007C000DFF8A4C0604502D14FF0090C01E04FF002
:1007D0000A0C0CFA07FC4CEA060CCEF808C44F6869
:1007E000DBF80060FF0226EA020600D516435F46EA
:1007F000CBF80060D1F804C0DBF804605FEA8C2C11
:1008000026EA020600D516437E606E684F6826EA27
:100810000206BF0300D516436E602E684F6826EAB5
:100820000206FF0300D516432E605B1C0A6832FAED
:1008300003F67FF411AFBDE8F88F00008000005888
:10084000F4440258000002580004025800080258FC
:10085000000C0258001002580014025800180258E8
:10086000001C02580020025800240258426921EA64
:1008700002030A4043EA0241816170470AB1816183
:1008800070470904FBE7000001480068000C70474E
:100890000010005C0148806870470000A800002438
:1008A000024881680278114481607047A8000024E2
:1008B000032010B500F0ACF801F022FA0F4A1049FD
:1008C00014681368C4F3032203F00F038A5CC95C45
:1008D00002F01F0201F01F01D0400A4A20FA01F184
:1008E0001160094908600F2000F010F808B10120DC
:1008F00010BD00F04DF8002010BD00001844025853
:10090000CC930008B8000024B400002410B51028CF
:1009100004468AB02AD200220146752000F058F819
:10092000752000F047F8154804601548016841F447
:1009300000310160006808A900F4003009906846A1
:1009400001F06AF901F0CAF90E49400000220E4C8C
:10095000B0FBF1F10D4840F2E7330460C0E9033227
:10096000491EC0E9011202F0D5FE10B101200AB003
:1009700010BD064802F000FFF9E70000AC000024BB
:10098000F044025840420F00004401407008002427
:10099000074882B0016841F002010160006800224E
:1009A0000F2100F002000090901E02B000F010B87D
:1009B000F4440258002809DB410900F01F028900B5
:1009C000012001F1E0219040C1F8000170470000D2
:1009D0000E4BF0B41B680D46C3F30223C3F10706A8
:1009E000042E00D90426191D072901D2002300E096
:1009F000DB1E012404FA06F19C40491E2940641EB6
:100A0000994014402143F0BC06F08EB80CED00E094
:100A1000064900F0070210B54FF6FF040868044BC2
:100A2000204040EA02201843086010BD0CED00E0B1
:100A30000000FA05134970B50A68D243520705D57C
:100A4000096801F00701814213D118E00A6822F019
:100A5000070202430A60FFF71DFF0A4D4FF47A7642
:100A60000446083D07E000BFFFF714FF001BB0423B
:100A700001D9012070BD2868C0438004F4D400204F
:100A800070BD00000C48025810B501F0F3F805499C
:100A90000968054AC1F30211515C01F01F01C84009
:100AA00010BD000020440258CC9300084A4930B5DC
:100AB000494C0B1D0A680C3409681D68246802F053
:100AC000030305F00102C1F30511C4F3CC040029AE
:100AD00014FB02F200EE102AF8EE400A76D0414AEA
:100AE0009FED3E1ADFED3E1AB7EE000A23B1012B4F
:100AF0005AD0022B18D15CE0374C283C23689B0667
:100B000012D5394B246801EE901A1168C4F3C10460
:100B1000F8EE612AE34001EE903AC1F30801F8EEE5
:100B2000611A81EEA22A07E002EE101A1168F8EEAF
:100B3000422A81EEA22A45E001EE901A1168F8EEF1
:100B4000611A40EE811A71EE800A62EE200AC1F34A
:100B5000462101EE101AB8EE411A31EE001AC0EE2D
:100B6000811ABCEEE11A80ED001A1168C1F306414A
:100B700001EE101AB8EE411A31EE001AC0EE811AD9
:100B8000BCEEE11A80ED011A1168C1F3066101EEB5
:100B9000101AB8EE411A31EE000A80EE801ABCEE4F
:100BA000C10A80ED020A30BD01EE901ADFED0F2A76
:100BB00003E001EE901ADFED0E2A1168F8EE611ADB
:100BC00082EEA12AC1F30801B6E7FFE70021016028
:100BD0004160816030BD00002844025800000039A7
:100BE0000024744C304402580090D0030024744A0E
:100BF00020BCBE4B494930B5484C0B1D0A68143423
:100C000009681D68246802F00303C5F30012C1F3EC
:100C10000531C4F3CC04002914FB02F200EE102AC3
:100C2000F8EE400A75D03F4A9FED3D1AB7EE000A34
:100C30006BB1DFED3D1A012B01D0022B64D002EE27
:100C4000101A1168F8EE422A81EEA22A21E0334CF4
:100C5000283C23689B0612D5344B246801EE901A79
:100C60001168C4F3C104F8EE612AE34001EE903A42
:100C7000C1F30801F8EE611A81EEA22A0BE001EE41
:100C8000901ADFED2B2A00BFF8EE611A116882EE90
:100C9000A12AC1F3080101EE901A1168F8EE611A59
:100CA00040EE811A71EE800A62EE200AC1F34621FD
:100CB00001EE101AB8EE411A31EE001AC0EE811A98
:100CC000BCEEE11A80ED001A1168C1F3064101EE95
:100CD000101AB8EE411A31EE001AC0EE811ABCEEBD
:100CE000E11A80ED011A1168C1F3066101EE101AD4
:100CF000B8EE411A31EE000A80EE801ABCEEC10A4D
:100D000080ED020A30BD04E001EE901ADFED092A01
:100D1000BAE70021016041608160F3E7284402588E
:100D200000000039384402580024744A0090D0036F
:100D30000024744C20BCBE4B494930B5484C0B1DB7
:100D40000A681C3409681D68246802F00303C5F3AF
:100D50000022C1F30551C4F3CC04002914FB02F2B4
:100D600000EE102AF8EE400A75D03F4A9FED3D1A7A
:100D7000B7EE000A6BB1DFED3D1A012B01D0022B5B
:100D800064D002EE101A1168F8EE422A81EEA22A0F
:100D900021E0334C283C23689B0612D5344B246851
:100DA00001EE901A1168C4F3C104F8EE612AE34021
:100DB00001EE903AC1F30801F8EE611A81EEA22A21
:100DC0000BE001EE901ADFED2B2A00BFF8EE611A5E
:100DD000116882EEA12AC1F3080101EE901A116890
:100DE000F8EE611A40EE811A71EE800A62EE200A76
:100DF000C1F3462101EE101AB8EE411A31EE001A85
:100E0000C0EE811ABCEEE11A80ED001A1168C1F340
:100E1000064101EE101AB8EE411A31EE001AC0EE8A
:100E2000811ABCEEE11A80ED011A1168C1F3066166
:100E300001EE101AB8EE411A31EE000A80EE801A67
:100E4000BCEEC10A80ED020A30BD04E001EE901A4A
:100E5000DFED092ABAE70021016041608160F3E714
:100E60002844025800000039404402580024744AC3
:100E70000090D0030024744C20BCBE4B2DE9F04FF1
:100E8000944A4FF48079DFF848824845924B89B004
:100E9000924EA8F1040592494FF080574FEA221470
:100EA0004FF0005C2ED1D8F8000000F007000528B4
:100EB00024D2DFE800F09BB58425AA0003A8FFF741
:100EC000F5FD049809B0BDE8F08F6846FFF792FE83
:100ED0000098F7E706A8FFF72FFF0698F2E70868E3
:100EE000C0F3C10022FA00F0ECE70A68D2057CD515
:100EF000B8427AD12046E5E71846E3E70020E1E76B
:100F00003046DFE7B0F5007F1AD0DFF8D891B0F5B2
:100F1000806F26D0B0F5006F37D04FF4805A50451F
:100F20004FF4804B4FD1D8F8000000F4E040B0F50A
:100F3000005F44D03DDC002858D05045DED16FE042
:100F4000D8F8000000F4E070802838D004DC0028D5
:100F50004CD04028D2D163E0C028D1D04845CDD173
:100F600053E0D9F8000000F46000B0F5800F26D0FF
:100F700004DCD8B3B0F5001FC0D151E0B0F5C00F0C
:100F8000BED0B0F5000FB9D13FE0D9F8000000F0B5
:100F9000E060B0F1007F12D004DC38B3B0F1807FA4
:100FA000ACD13DE0B0F1407FAAD0B0F1806FA5D1C7
:100FB0002BE0B0F5405FA3D058459FD125E00868ED
:100FC00080009BD586E7B0F5002F4FF4803612D015
:100FD000B04237D1286810F4803075D0B0428DD13E
:100FE000086800018AD5684601E025E06CE0FFF75B
:100FF00001FE029866E7D9F8000010F440300FD0E7
:10100000B04211D0B0F5003F98D128680D6800F0CB
:1010100040506D077FF569AF00287FF466AF5EE74B
:1010200008680001CDD550E708688000C9D506A83A
:10103000FFF782FE089845E709688903C1D5604536
:1010400088D159E758452BD1D9F8000000F0E0408D
:10105000B0F1405F1CD00CDC90B1B8422CD06045A0
:101060008AD108688000ACD506A8FFF765FE07980E
:1010700028E7B0F1804F0FD0B0F1A04F90D11FE022
:10108000FFF702FD1EE76846FFF7B4FD019819E778
:101090000868400795D522E70868C00591D529E77B
:1010A000B0F5004F89D1D8F8000010F0405007D0BB
:1010B000B84209D0604592D108680001E3D41DE729
:1010C00008688003FBD517E708688001F7D5F5E6C7
:1010D000504402580090D00340787D010080BB004E
:1010E00000440258584402582DE9FC5F044650F869
:1010F000241B002500902E460801FE4FDFF8F883E0
:101100001DD5606E50B1B0F5801F0CD0B0F5001F3A
:101110000ED0B0F5401F1DD001250FE0386840F417
:101120000030386016E00221201D03F0DDF803E0F6
:101130000098022103F068F905000BD02E462088A4
:10114000C00523D5606D05281ED2DFE800F00C1124
:10115000161B1B00626ED8F8001021F440111143D9
:10116000C8F80010EBE7386840F40030386009E058
:101170000021201D03F0B8F803E00098002103F0DF
:1011800043F905466DB100E001252E462088800513
:1011900028D5A06D80281ED00CDC90B140280ED13F
:1011A00014E0626DD8F8001021F007011143C8F86F
:1011B0000010EBE7C02813D0B0F5807F10D00125D8
:1011C0000FE0386840F40030386009E00021201D4D
:1011D00003F08AF803E00098002103F015F90546B2
:1011E00095B12E462088DFF81093400509F10809D3
:1011F0002CD5D4F8A400B0F5800F20D00DDCA0B120
:10120000B0F5001F0FD115E0A26DD8F8001021F441
:10121000E0711143C8F80010E4E7B0F5C00F13D037
:10122000B0F5000F10D001250FE0386840F4003011
:10123000386009E00021201D03F056F803E0009813
:10124000002103F0E1F8054675B12E46208800051F
:101250002DD5D4F8A800B0F1007F21D00EDCA8B1C4
:10126000B0F1807F10D116E0D4F8A420D9F8001096
:1012700021F460011143C9F80010E7E7B0F1407FA5
:1012800013D0B0F1806F10D001250FE0386840F422
:101290000030386009E00021201D03F025F803E04C
:1012A0000098002103F0B0F805466DB12E46206885
:1012B00080011FD5A06CD8B110280FD0202812D0E3
:1012C000302815D0012514E0D4F8A820D9F8001052
:1012D00021F0E0611143C9F80010E8E7386840F4F4
:1012E0000030386004E00221201D02F0FDFF0546B9
:1012F0006DB12E462088C0042BD5E06DB0F5005F9F
:1013000020D00DDCA0B1B0F5805F0FD115E07A4898
:10131000A26C001F016821F0300111430160E9E770
:10132000B0F5405F13D0B0F5804F10D001250FE02D
:10133000386840F40030386009E00021201D02F0D8
:10134000D3FF03E00098002103F05EF8054685B165
:101350002E462088800429D5206EB0F5403F23D04A
:1013600010DC08B3B0F5803F14D0B0F5003F0FD1CA
:1013700015E0E26DD8F8001021F4E0411143C8F8FF
:101380000010E6E7B0F5802F0ED0B0F5A02F0BD0FF
:1013900001250AE00121201D02F0A6FF03E00098CC
:1013A000012103F031F805468DB12E462088400416
:1013B0002AD5D4F8AC00B0F1405F23D010DC08B3DC
:1013C000B0F1805F14D0B0F1005F0FD115E0226E54
:1013D000D8F8001021F4E0211143C8F80010E5E727
:1013E000B0F1804F0ED0B0F1A04F0BD001250AE034
:1013F0000121201D02F078FF03E00098012103F095
:1014000003F805466DB12E46208800041FD5E06E16
:10141000D8B1B0F1805F0ED0B0F1005F10D00125DF
:1014200014E0D4F8AC20D9F8001021F0E0411143C9
:10143000C9F80010E8E7386840F40030386004E08C
:101440000121201D02F050FF05466DB12E46206897
:10145000C0011ED5606CD0B101280ED0022811D079
:10146000032814D0012513E0E26ED8F8001021F013
:1014700040511143C8F80010E9E7386840F40030E3
:10148000386004E00221201D02F02EFF054685B1E0
:101490002E462068DFF85CB04002ABF11C0B57D53C
:1014A0001648016841F480710160FFF7F3F9824644
:1014B0000EE01148626C001F016821F00301114326
:1014C0000160E6E7FFF7E6F9A0EB0A0064283DD8E3
:1014D0000A480068C005F5D57DBBDFF81CA0B4F84C
:1014E000B0200AF1200ADAF8001002F4407001F48A
:1014F000407105E02C4402585044025800480258FC
:10150000814211D0DAF80010DAF8002021F440719D
:1015100042F48032CAF80020DAF8002022F4803247
:10152000CAF80020CAF80010D4F8B000B0F5807FE7
:1015300021D1FFF7AFF9019019E008E0FFF7AAF910
:101540000199411A41F28830814210D903252E4673
:101550002078DFF844A4C0073DD0A06F182838D009
:1015600026DC80B3082829D0102825D12CE0DAF811
:1015700000008007E2D5D4F8B010C1F301200328A1
:1015800058460DD0016821F47C510160B4F8B020B8
:10159000DAF80010C2F30B021143CAF80010D7E7C3
:1015A000FE4A036802EA111223F47C511143ECE76E
:1015B00020280ED028280CD001250BE00121201D69
:1015C00002F092FE04E004E00098012102F01CFF0A
:1015D00005465DB12E46207880071ED5606F06282F
:1015E00019D2DFE800F0160C11161616A26FDAF801
:1015F000001021F038011143CAF80010EBE7012177
:10160000201D02F071FE03E00098012102F0FCFEB3
:10161000054675B100E001252E46207840071FD50C
:10162000D4F89000062819D2DFE800F0160C111645
:101630001616626FDAF8001021F007011143CAF89C
:101640000010EAE70121201D02F04EFE03E00098A1
:10165000012102F0D9FE05469DB100E001252E468C
:10166000207880062BD5D4F88C00B0F1405F24D0D0
:1016700011DC10B3B0F1805F15D0B0F1005F10D174
:1016800016E0D4F89020D9F8001021F0070111439A
:10169000C9F80010E4E7B0F1804F0ED0B0F1A04FD0
:1016A0000BD001250AE00021201D02F01DFE03E001
:1016B0000098022102F0A8FE05468DB12E46207842
:1016C00040062BD5D4F89800B0F5406F24D011DC3B
:1016D00010B3B0F5806F15D0B0F5006F10D116E0E3
:1016E000D4F88C20DAF8001021F0E0411143CAF858
:1016F0000010E4E7B0F5805F0ED0B0F5A05F0BD02E
:1017000001250AE00021201D02F0EEFD03E0009813
:10171000022102F079FE05468DB12E4620780006A2
:101720002BD5D4F89C00B0F5C04F24D011DC10B3F9
:10173000B0F5005F15D0B0F5804F10D116E0D4F8A9
:101740009820D9F8001021F4E0511143C9F8001095
:10175000E4E7B0F5004F0ED0B0F5204F0BD00125D7
:101760000AE00021201D02F0BFFD03E000980221E5
:1017700002F04AFE05464DB12E46207800071ED5E0
:10178000D4F88000B0F5805F0AD00FE0D4F89C2038
:10179000D9F8001021F460411143C9F80010ECE7BA
:1017A0000098022102F030FE00B10126D4F880201A
:1017B000DAF8001021F440511143CAF800102078E3
:1017C000C00613D5D4F89400B0F5807F05D10098F9
:1017D000022102F019FE00B10126D4F89420D9F8B4
:1017E000001021F440711143C9F800102068000373
:1017F00016D5D4F8A00038B1B0F5803F09D0B0F5C7
:10180000003F0BD001250AE00021201D02F06CFDF5
:1018100003E00098022102F0F7FD054685B12E464F
:101820002068400322D5D4F88400B0F5801F11D081
:10183000B0F5001F13D0B0F5401F15D0012514E0FE
:10184000D4F8A020D9F8001021F440311143C9F890
:101850000010E5E7386840F40030386004E0009894
:10186000012102F0D1FD054655B12E462068C00386
:101870001CD5E06C70B1B0F5803F10D0012514E0AC
:10188000D4F88420DAF8001021F440111143CAF88A
:101890000010EBE7386840F40030386004E00221C3
:1018A000201D02F021FD0546CDB12E4620688000A6
:1018B00005D50098022102F0A7FD00B1012620689D
:1018C00080031BD5E06FB8B1B0F5807F10D0B0F5C4
:1018D000007F11D0B0F5407F0ED001250DE02E48DD
:1018E000E26C0838016821F4803111430160DDE7C2
:1018F000386840F400303860F5B32E462068C002E6
:1019000007D5226FD8F8001021F000411143C8F824
:1019100000102068C00008D5D4F8B420DBF800100F
:1019200021F480411143CBF800102068800207D5D4
:10193000A26ED8F8001021F080711143C8F8001091
:10194000206840000CD5DBF8001021F40041CBF8F2
:101950000010DBF80010D4F8B8201143CBF80010C9
:101960002068002807DA0C48226D0838016821F049
:1019700040511143016000E014E02068000208D5E6
:10198000D4F88820DAF8001021F440011143CAF895
:10199000001086B1012003E054440258CFFFFF003D
:1019A000BDE8FC9FE26FDAF8001021F440711143AA
:1019B000CAF80010A2E70020EDE700002DE9F05F73
:1019C00004000F467ED0DFF83882D8F8000000F01F
:1019D0000F00B8420CD2D8F8001021F00F013943A3
:1019E000C8F80010D8F8000000F00F00B84269D124
:1019F0002078844D40070AD52069296801F07001DC
:101A0000884204D9296821F07001014329602078B7
:101A10007C4E361D00070AD56069316801F07001FF
:101A2000884204D9316821F0700101433160207887
:101A3000C0060AD5A069316801F4E061884204D982
:101A4000316821F4E061014331602078DFF8B4B1FE
:101A500080060BF1080B0CD5E1695846DBF8002035
:101A600002F07002914204D9026822F070020A4327
:101A70000260207880070AD5E068296801F00F012C
:101A8000884204D9296821F00F0101432960207898
:101A9000C0073ED05B49A2682868183920F47060FE
:101AA000104328606068022818D0032819D00968FC
:101AB000012819D0490700294ADADFF848A1AAF11C
:101AC000080A00E044E0DAF8002022F007020243AE
:101AD000CAF80020FEF7DEFE814612E0096889039D
:101AE000E9E709688901E6E7C905E4E7FEF7D2FE00
:101AF000A0EB090141F28830814202D90320BDE800
:101B0000F09F6168DAF8000000F03800B0EBC10F18
:101B1000ECD1207880070AD5E068296801F00F0130
:101B2000884204D2296821F00F0101432960D8F8C6
:101B30000010404601F00F01B9420BD9016821F0B5
:101B40000F0139430160006800F00F00B84201D076
:101B50000120D4E7207840070AD52069296801F0E0
:101B60007001884204D2296821F070010143296084
:101B7000207800070AD56069316801F07001884259
:101B800004D2316821F07001014331602078C00631
:101B90000AD5A069316801F4E061884204D2316855
:101BA00021F4E06101433160207880060CD5E169C1
:101BB0005846DBF8002002F07002914204D202681D
:101BC00022F070020A43026000F09AF80E492A6877
:101BD0002B68C2F3032203F00F038A5CC95C02F096
:101BE0001F0201F01F01D040084A20FA01F11160E4
:101BF0000749086007480068BDE8F05FFEF786BE49
:101C00000020005218440258CC930008B800002469
:101C1000B4000024AC00002470B5144C3F220260D4
:101C2000124A24680832131D114D04F00704446061
:101C300016681C1D06F470668660166806F00F06AE
:101C4000C660126802F0700202611A6802F0700247
:101C500042611A6802F4E0628261226802F0700256
:101C6000C261286800F00F00086070BD104402587F
:101C70000020005230B500F043F80B4A0B490C4BE2
:101C800015681468C5F3032204F00F048A5C095D2B
:101C900002F01F0201F01F01D040064A20FA01F1B4
:101CA00019601060084630BD18440258CC930008F3
:101CB000B8000024B400002400B5FFF7DBFF05499D
:101CC0000968054AC1F30211515C01F01F01C840C7
:101CD00000BD00001C440258CC93000800B5FFF77B
:101CE000C9FF05490968054AC1F30221515C01F0A9
:101CF0001F01C84000BD00001C440258CC930008DE
:101D0000454970B545480968434B103B11F038020E
:101D100008D00111082A03D0102A0BD0182A0BD0A2
:101D2000084670BD19688906FBD51968C1F3C10161
:101D3000C84070BD3A4870BD3749374D18310C1D49
:101D400024350A68096826682D6802F0030406F045
:101D50000102C1F30511C5F3CC0515FB02F200EE3B
:101D6000102AB8EE400AE9B32F4ADFED2E0AB7EE8B
:101D7000001A6CB1DFED2D1A012C01D0022C43D0DA
:101D800002EE101A1068F8EE422A81EEA22A1EE036
:101D90001C68A40611D51B6801EE901A1168C3F3E4
:101DA000C103F8EE612AD84001EE900AC1F30800A1
:101DB000F8EE611A81EEA22A0BE001EE901ADFED37
:101DC0001C2A00BFF8EE611A106882EEA12AC0F347
:101DD000080001EE900AF8EE611A40EE201A31EE8A
:101DE000810A00E015E022EE000A1068C0F34620E8
:101DF000401C00EE900AF8EE600A80EE201ABCEE5D
:101E0000C10A10EE100A70BD01EE901ADFED092A2A
:101E1000D8E7002070BD0000104402580090D003A5
:101E200040787D0100000039304402580024744A93
:101E30000024744C20BCBE4B2DE9F05F04007DD023
:101E4000FF4F2078FE4D1837DFF8F493103DC007A0
:101E500048D0D9F80000396800F03800102815D0B3
:101E6000182803D101F0030002280FD06068B0F5F4
:101E7000803F12D010B1B0F5A02F18D0286820F400
:101E800080302860286820F4802009E028688003DA
:101E900028D560680028D2D024E0286840F480303B
:101EA0002860606888B1FEF7F5FC064609E02868FE
:101EB00040F480202860F0E7FEF7ECFC801B6428EB
:101EC0006FD828688003F7D50CE0FEF7E3FC0646E0
:101ED00005E000BFFEF7DEFC801B6428F0D8286810
:101EE0008003F7D4207841F20308D54E0C3E8007DA
:101EF00069D5D9F80000396810F038000ED01828DC
:101F000001D188070AD0E06890B3296821F019014F
:101F100001432960FEF7BEFC824631E02868400795
:101F200002D5E06800288AD0E168286820F019000E
:101F300008432860FEF7AEFC824607E0DFE000BF02
:101F4000FEF7A8FCA0EB0A000228B9D828684007D1
:101F5000F6D500BFFEF798FC40451BD82069402805
:101F600012D0316821F47C3141EA003030602AE03F
:101F700018E000BFFEF78EFCA0EB0A0002289FD8F5
:101F800028684007F6D5E5E7306820F47C3040F457
:101F90000030EBE7207C316821F0FE4141EA00602F
:101FA000E4E70DE1286820F001002860FEF772FCEC
:101FB000824605E0FEF76EFCA0EB0A0002288DD8F1
:101FC00028684007F6D42078C0065DD5D9F800000F
:101FD000DFF86CB2396800F03800ABF1040B082868
:101FE00010D0182803D101F0030001280AD0E069BD
:101FF0000028286838D040F080002860FEF74AFCAE
:10200000824623E02868C00523D5E069802876D180
:102010001FE0206A202821D0316821F0F84141EAF0
:102020008060306030E000BF94F82010DBF80020C2
:1020300022F07C5242EA0161CBF8001024E000BF9C
:10204000FEF728FCA0EB0A00022898D82868C005F3
:10205000F6D5FEF719FC4045E6D8DAE7306820F0FF
:10206000F84040F08040DCE720F080002860FEF778
:1020700011FC064605E000BFFEF70CFC801B0228A1
:102080009DD82868C005F7D42078000729D56C486A
:102090006169643000298046016811D041F0010176
:1020A0000160FEF7F7FB064605E000BFFEF7F2FB16
:1020B000801B0228C9D8D8F800008007F6D510E0A8
:1020C00021F001010160FEF7E5FB064605E000BFD7
:1020D000FEF7E0FB801B022872D8D8F800008007CA
:1020E000F6D42078800623D5A0690028286810D06F
:1020F00040F480502860FEF7CDFB064605E02CE159
:10210000FEF7C8FB801B02285AD828688004F7D540
:102110000EE020F480502860FEF7BCFB064604E089
:10212000FEF7B8FB801B02284AD828688004F7D441
:10213000207840074FD5DFF80C81D8F8001041F423
:102140008071C8F80010FEF7A5FB064605E000BF49
:10215000FEF7A0FB801B642832D8D8F80000C00529
:10216000F6D5374EA068603601280AD008B1052898
:1021700013D0306820F001003060306820F0040097
:1021800002E0306840F001003060A06841F2883A17
:1021900090B1FEF77FFB80460AE0306840F0040013
:1021A0003060EEE7FEF776FBA0EB0801514507D85B
:1021B00030688007F6D50EE0FEF76CFB804607E03E
:1021C00084E000BFFEF766FBA0EB080151457DD817
:1021D00030688007F6D4606AB0B3DFF86480D9F85D
:1021E000001008F12008C1F3C20103296FD00228B2
:1021F000286820F08070286003D0FEF74BFB04466F
:1022000080E0FEF747FB064605E000BFFEF742FB15
:10221000801B022873D828688001F7D4E26A40F254
:10222000F331386854F8283F884340EA02101843D5
:102230003860217B4FF4FE0C22894FF0FE4704E00A
:10224000104402580048025889E0208A4902521E70
:10225000267DA1F5007189B2401EC2F30802114328
:10226000761E0CEA004001433E4807EA066211432D
:102270003C4AC8F800100832016821F001010160F1
:1022800011684FF6F876236AB14341EAC301116041
:102290000168A26921F00C01114301600168E26943
:1022A00021F0020111430160016841F480310160B5
:1022B000016841F400310160016841F4802101604E
:1022C000016841F001010160286801E017E01DE0AC
:1022D00040F080702860FEF7DDFA044605E000BF9C
:1022E000FEF7D8FA001B022809D828688001F7D524
:1022F00035E000BFFEF7CEFA001B022802D903200A
:10230000BDE8F09F28688001F4D428E039680128EE
:10231000D8F8000021D0A26A01F0030393421CD137
:10232000E26AC1F305118A4217D1216BC0F308029A
:10233000491E8A4211D1616BC0F34622491E914267
:102340000BD1A16BC0F30642491E914205D1E16B4E
:10235000C0F30660491E814201D00120D0E7002071
:10236000CEE700002C440258704770477047704712
:102370002DE9FC5F0446806B0E46032184F8301083
:10238000002703285CD0B6F5004F59D0B6F5804F32
:102390004FF000054FF400684FF0806904D006B399
:1023A000606B40F000603FE00095002101952068DF
:1023B00002F00CFC80011CD46946204602F060FC4F
:1023C00070BB019840032DD5B4F84410206809046F
:1023D00002F0B0F820BB206802211DE0606B2843AA
:1023E00022E0009500210195206802F0EFFB8001BA
:1023F00001D54546F2E76946204602F041FC78B92E
:102400000198C0030ED5B4F844102068090402F006
:1024100091F828B92068002102F0D6F80028DDD014
:102420000546DBE74D46D9E76063606B4FF4007B00
:10243000DFF8B8A040B121680127C1F838A042E018
:10244000606B40F08050EFE74FF48030FEF716FDF0
:10245000010033D0264D3346D4E904C0B1FBF5F872
:10246000D4E90192804511D9A66D5E450ED0B6F52E
:10247000807F12D04FEA6506E8B14FEA4008B1FB11
:10248000F8F8B04502D900BFB1FBF5F04946CDE9F7
:1024900000C0206802F09EFB15E0164E30B14FEAF6
:1024A0004008B1FBF8F8A84502D8EFE7A942EDD9FA
:1024B000B1FBF6F0EAE7B142E6D8E7E7606B012747
:1024C00040F0006060632068594602F064F830B163
:1024D00022680127C2F838A0616B014361630120C3
:1024E00084F830003846BDE8FC9F0000FF0FE01F75
:1024F00080F0FA0200E1F50570470000F0B5C26D0A
:10250000920F0A70C26DC2F383624A70C26DC2F349
:1025100001628A70C26D120CCA70B0F85C20120A97
:102520000A7190F85C204A71026E120DCA80026E28
:10253000C2F303420A72B0F86020C2F3C0324A729A
:10254000B0F86020C2F380328A72B0F86020C2F323
:102550004032CA72B0F860200026C2F300320A731B
:102560004E730122836B4FF4007463B1012B3AD098
:10257000036850499963416B41F08051416380F891
:1025800030200120F0BDB0F86030456E9B051B0D7A
:1025900043EA95730B61436EC3F3C2630B75436EDD
:1025A000C3F302634B75436EC3F342538B75436EA3
:1025B000C3F38243CB75436EC3F3C2330B760D690D
:1025C0006D1C85640B7E03F007039B1C9D40856496
:1025D0000B7A446503F00F0302FA03F35F0A7D43AD
:1025E000C0E913350EE090F86050436EAD06AD0AB9
:1025F00045EA13430B610B695B1C9B028364C0E9D2
:1026000013434465B0F86430C3F380334B76B0F8BD
:102610006430C3F3C6138B7690F8643003F07F0305
:10262000CB76836EDB0F0B77836EC3F341734B77EF
:10263000836EC3F382638B77836EC3F38353CB774D
:10264000836EC3F3405381F8203081F82160836E9C
:10265000C3F3004381F82230B0F86830C3F3C033CD
:1026600081F82330B0F86830C3F3803381F8243028
:10267000B0F86830C3F3403381F82530B0F86830E3
:10268000C3F3003381F82630B0F86830C3F38123F8
:1026900081F82730B0F86830C3F3012381F828307F
:1026A00090F86800C0F3460081F8290081F82A20DC
:1026B0000020F0BDFF0FE01F826B0A60C26B4A6012
:1026C000026C8A60426CCA60826C0A61C26C4A61A8
:1026D000026D8A61406DC8610020704770B5B0F826
:1026E0004410002504460068090402F05AF818B1A5
:1026F000616B0143616304E02068002102F066FA27
:102700000546C5F3432070BD2DE9F041054690F81C
:10271000300090B00C460026032810D069462846A9
:1027200002F0F6FB2A4F4FF0010860B12A6801263B
:1027300097636A6B02436A6385F8308039E0012051
:1027400010B0BDE8F08100994FF47F40C1F38111D2
:1027500021700099C1F340116170009900EA1122C3
:1027600042EA11616180019909BA6160029921729E
:102770000299090A61720299C1F30351A172DDE95C
:10278000022100EA1240C9B20843A0810398C0F3B5
:102790008520A0730398C0F30120E0730398C0F371
:1027A00003102074039800F00F0060740498000E6A
:1027B000A07428684FF4007101F0EDFE28B12A687A
:1027C00001269763686385F830803046B8E70000DB
:1027D000FF0FE01F2DE9F84304460068E56A416BEE
:1027E00009041BD5290719D5D4E90950202813D38A
:1027F0000026206802F004FA020A2870010C6A70B0
:10280000030EA970761CEB70082E05F10405F0D3B9
:10281000A06A2038C4E90950BDE8F883416B01275C
:10282000DFF8EC810026C90551D539024CF23A1285
:10283000816329072068C16B21EA0201C163206816
:10284000C16B21F08051C1632068C16821F0400153
:10285000C16018D515F0220F09D0206801F0EEFFF5
:1028600028B1616B014361632046FFF745FE216893
:10287000AA07C1F8388084F83070E66223D1204678
:1028800000F046FAC8E72806C6D5206815F0220FE2
:1028900086622068C6622068066509D0206801F05B
:1028A000CDFF28B1616B014361632046FFF724FE31
:1028B00015F0300F84F83070E66202D0204600F048
:1028C00027FAA807A8D0204600F01EFAA4E7416B1B
:1028D000490421D529071FD5D4E9075020289BD3C7
:1028E000002628780090697840EA01200090A978B5
:1028F00040EA01400090E9782D1D40EA0160009017
:102900002068694602F094F9761C082EE9D3206A03
:102910002038C4E907507FE7416B11F03A0F416B53
:1029200058D0890703D5616B41F002016163416BA7
:10293000090703D5616B41F008016163416B8906AA
:1029400003D5616B41F020016163416BC90603D57A
:10295000616B41F010016163C0F838802068C16B81
:1029600021F49D71C1632068C16821F04001C160FC
:102970002068C16A41F40051C1622068C16841F019
:102980008001C160206801F059FF626B2B074FF492
:10299000006140EA020060632068C26822F08002A1
:1029A000C2602068816303D584F83070E6620DE070
:1029B00028068BD5606B002888D02068C16B21F079
:1029C0008051C1632068066584F830702046FFF7A7
:1029D00093FD21E7C9009ED54FF0805181632068A7
:1029E000006D40074FEA856008D40028204602DACF
:1029F000FFF7BDFC10E7FFF7B8FC0DE70028204605
:102A000002DAFFF7B3FC07E7FFF7AEFC04E70000CC
:102A10003A0F0018F0B5040085B020D094F83000CB
:102A2000002518B92046257600F094F8042084F893
:102A30003000204600F03CF888B969462046FFF790
:102A400063FE60B99DF81010A26B9DF81100012A79
:102A500008D0A5652046E168FFF78AFC58B101203F
:102A600005B0F0BD014302D04FF4007001E04FF417
:102A70008070A065EEE7FDF70DFF0127064604E034
:102A8000FDF708FF801B401C0AD02046FFF726FEFA
:102A90000428F5D16563E56284F830700020DFE733
:102AA0004FF00040606384F830700320D8E70000E6
:102AB0002DE9FC4104464FF000084FF48030FEF74A
:102AC000DDF905004FF0010620D01F48434642467D
:102AD0004146B5FBF0F7CDE90087206802F07AF8AF
:102AE000206802F087F878001849B5FBF0F0B1FBD8
:102AF000F0F0401CFDF792FD204602F0AFF958B10E
:102B000084F83060616B0143616319E04FF000604D
:102B100084F83060606313E0204602F023F9002857
:102B2000EED120684FF4007101F035FD002808D087
:102B3000226807499163616B0143616384F83060E7
:102B40000120BDE8FC81000000350C0010210100CF
:102B5000FF0FE01F2DE9F043B5B0044614212FA864
:102B6000FDF762FCBC216846FDF75EFC2C4920683D
:102B7000884252D14FF48030009000266846139668
:102B8000FEF7B2FA08B1FDF723FD2648016841F4CB
:102B900080310160006800F48030349021480C30AE
:102BA000016841F004010160016801F00401349101
:102BB000016841F00801016000682FAA02244FF06B
:102BC00001080325329500F00800DFF85C904FF40F
:102BD000706182E812010C27CDE933702FA94846B5
:102BE000FDF72EFD2FA9E00281E85100CDE9325713
:102BF0004846FDF725FD2FA8042180E812010B4867
:102C00002FA9CDE93257FDF71BFD00220721312006
:102C1000FDF7DEFE3120FDF7CDFE35B0BDE8F083D7
:102C200000700052D444025800080258000C0258A8
:102C30002DE9F0430F001E4687B00446154607D025
:102C400094F83000012807D0022007B0BDE8F083D7
:102C5000606B40F0006008E0216D0020AA196063FD
:102C60008A4204D9606B40F00070606341E0032148
:102C700084F8301022687102D062C4E90971A26B35
:102C8000012A00D06D024FF0020C90230293CDE98F
:102C900003C04FF0FF320590CDE900218046206847
:102CA000694601F029FE2068012E4FF00109C26833
:102CB00042F04002C260206887652068C0F85090EA
:102CC00006D98220E0622068294601F0D5FC05E0A3
:102CD0008120E0622068294601F0E8FC58B12568AF
:102CE0000849A963616B0143616384F83090C4F8BB
:102CF0002C800120A9E72068C16B41F49571C16364
:102D00000020A2E7FF0FE01F10B5FDF735FC10BD56
:102D100010B5FDF74DFC10BD2DE9F0470F001E4624
:102D200086B00446154607D094F83000012807D035
:102D3000022006B0BDE8F087606B40F0006008E05C
:102D4000216D0020AA1960638A4204D9606B40F0AB
:102D50000070606340E0032184F830102268710243
:102D6000D062C4E90771A26B012A00D06D024FF056
:102D7000FF324FF0900A0590CDE902A0CDE9002185
:102D8000049080462068694601F0B6FD2068C1685D
:102D900041F04001C16020684FF001098765012EB4
:102DA0002168C1F8509006D9A020E0622068294629
:102DB00001F06EFD05E0C4F82CA02946206801F062
:102DC00081FD58B12568094AAA63626B02436263B8
:102DD00084F83090C4F82C800120AAE72068C16BE9
:102DE00041F48D71C1630020A3E70000FF0FE01FD5
:102DF0002DE9F047040029D0504A4FF0000920681F
:102E00004F4B504D9042C4F8289006D0984204D0C1
:102E1000A84202D0E1680F2918D8E1684FF0010AF2
:102E2000E76B0831C9080AEB57167143904205D089
:102E3000984203D0A84201D0082907D8904203D075
:102E4000984201D0A84204D1102902D90120BDE83E
:102E5000F08794F8810020B9204684F8809000F033
:102E600073F8022084F881002068016821F00101D4
:102E700001602168A0698A68B0F1806F02F4F810DF
:102E800010D16268B2F5800F01D01AB10AE0A26BCE
:102E900022B107E0A26BB2F1805F03D10A6842F46D
:102EA00080520A60A66AE169E26B25683143E368F3
:102EB000024311431943A960D4E90D02D4E9057115
:102EC000636A25691843D4F820C00A432668104372
:102ED0002843A56D3843D4E90182D4E9123140EA90
:102EE0000C0040EA08000843104318432843F060F0
:102EF000606868B92068816821F4C05141F40061BC
:102F000081602068816821F4C06141F48061816042
:102F10002068016D21F0010101656068400206D55D
:102F20002068626DC16821F000411143C160C4F89E
:102F3000849084F881A0002089E7000000300140DF
:102F400000380040003C004010B5B6B004461421E3
:102F50002FA8FDF769FABC216846FDF765FA184904
:102F60002068884229D140140090002468461894B3
:102F7000FEF7BAF808B1FDF72BFB1248016841F4DF
:102F800000510160006800F4005034900D48103882
:102F9000016841F01001016000682FAB022100F0D0
:102FA000100034904FF4A040052283E81300064837
:102FB0002FA9CDE93242FDF743FB36B010BD00002A
:102FC00000340140F0440258001002582DE9FF5F20
:102FD000044616460F461D4600214FF0040BD4E967
:102FE0000002009130300290B2F5800F01D1A0684C
:102FF00088B194F88000012819D04FF0010984F8B5
:103000008090FDF747FC94F881108246002001294A
:103010000FD0022126E084F881B03A4611462046BE
:103020000093334600F0E9F904B0BDE8F09F0220B8
:10303000FAE7B7B1AEB1A26880466766A4F86860E7
:1030400084F881B0C4F88400A4F86A60E065A4F84C
:103050006000A4F86200B2F5C02F2067606705D059
:1030600009E0012184F880000846DDE72068016856
:1030700021F400610160206841686FF30F01314362
:1030800041602068016841F0010101606068B0F5AD
:10309000800F04D12068016841F400710160E0688C
:1030A0000F282DD948F20806B4F86A00E0B320686A
:1030B000416931420BD0006B616E0860606E001D8B
:1030C0006066B4F86A00401EA4F86A00ECE7FDF7F9
:1030D000E1FBA0EB0A00A84202D3681CE4D001E0A7
:1030E000002DE1D1204602F03FF8D4F8842084F886
:1030F000808042F48071C4F8841084F881905CE090
:1031000007281CD83BE020684069C0070DD0029812
:103110000088616E0880606E801C6066B4F86A008A
:10312000401EA4F86A000AE02DE0FDF7B3FBA0EB17
:103130000A00A84202D3681C01D031E07DB3B4F884
:103140006A000028DFD11EE020684169C9070CD061
:1031500090F83000616E0870606E401C6066B4F8D4
:103160006A00401EA4F86A0009E0FDF793FBA0EB9B
:103170000A00A84202D3681C01D011E07DB1B4F866
:103180006A000028E0D1204601F0EEFF84F881902B
:10319000D4F8841084F8808089B1012044E7FFE7E7
:1031A000204601F0E1FFD4F8842084F8808042F4C6
:1031B0008070C4F8840084F88190032034E700987C
:1031C00032E72DE9FC5F0446006817468A46002175
:1031D0001D4694F8802000F1200B0191012A0DD0AA
:1031E0004FF0010884F88080FDF754FB814694F885
:1031F00081000026012804D002201EE00220BDE844
:10320000FC9FBAF1000F17D0B7B1A1680320C4F832
:103210005CA0A4F8607084F88100C4F88460A4F80D
:1032200062706666A4F86860A4F86A60B1F5C02FA1
:103230006667266704D008E0012084F88060DEE736
:103240002068016841F400610160206841686FF303
:103250000F01394341602068016841F001010160BC
:103260006068B0F5800F04D12068016841F40071F6
:103270000160E0680F281BD81FE0206841698907BA
:103280000BD5E16D09680162E06D001DE065B4F8E1
:103290006200401EA4F862000AE0FDF7FBFAA0EB12
:1032A0000900A84202D3681C02D095E0002D30D05E
:1032B000B4F862000028E0D174E007282BD86DE054
:1032C0002068416989071CD5B4F8621001290BD91F
:1032D000E16B49B1E16D09680162E06D001DE065D7
:1032E000B4F86200801E09E0E06D0188ABF80010C0
:1032F000E06D801CE065B4F86200401EA4F8620036
:1033000009E0FDF7C7FAA0EB0900A84202D3681C48
:1033100001D061E0BDB3B4F862000028D0D141E033
:103320002068416989072FD5B4F8621003290CD9A8
:10333000E16B402909D9E16D09680162E06D001D6A
:10334000E065B4F86200001F1AE0B4F862100129C9
:103350000CD9E16B51B1E06D0188ABF80010E06D64
:10336000801CE065B4F86200801E09E0E16D097818
:1033700080F82010E06D401CE065B4F86200401E4B
:10338000A4F862000AE027E0FDF784FAA0EB090048
:10339000A84202D3681C01D01EE0EDB1B4F862006F
:1033A0000028BDD100224B4608212046009501F09F
:1033B00039FF28B1D4F8840040F02000C4F884001C
:1033C000204601F0D1FE84F88180D4F8840084F88E
:1033D000806080B1012012E7204601F0C5FED4F8DC
:1033E000841084F8806041F48071C4F8841084F8FB
:1033F0008180032003E7019801E72DE9FF4F83B0A7
:1034000090F880100446006801294FF00001109FD9
:103410001D46019100F1200100F130009346029118
:10342000009014D04FF0010A84F880A0FDF732FA22
:10343000804694F881006368002101282E464FF4ED
:1034400080020CD0934208D1A36833B903E0022074
:1034500007B0BDE8F08F042801D0022037E00498BF
:1034600098B3BBF1000F31D07DB394F881000428EC
:1034700002D0052084F8810089460846C4F88410EB
:10348000C4F864B0A4F86A50A4F868500499E165DF
:10349000A4F86250A4F86050206760672068416813
:1034A0006FF30F01294341602068016841F0010179
:1034B00001606068904204D12068016841F40071A5
:1034C0000160E0680F2836D839E0FFE7012084F872
:1034D0008010BDE72068416989070DD565B1E16DB0
:1034E00009680162E06D001DE065B4F86200401EED
:1034F000A4F86200B4F8625048F2080220684169FA
:1035000011420DD066B1006B616E0860606E001DE7
:103510006066B4F86A00401EA4F86A00B4F86A60F5
:10352000FDF7B8F9A0EB0800B84202D3781C02D02E
:1035300089E0002F34D055EA0600CBD169E0072896
:1035400030D863E02068406980070ED56DB1E06D2A
:10355000018802980180E06D801CE065B4F862008B
:10356000401EA4F86200B4F8625020684069C007A9
:103570000ED06EB100980088616E0880606E801C6D
:103580006066B4F86A00401EA4F86A00B4F86A6085
:10359000FDF780F9A0EB0800B84202D3781C01D0F7
:1035A00051E08FB355EA0600CCD132E02068416982
:1035B00089070ED56DB1E16D097880F82010E06DB6
:1035C000401CE065B4F86200401EA4F86200B4F844
:1035D000625020684169C9070ED06EB190F8300082
:1035E000616E0870606E401C6066B4F86A00401E30
:1035F000A4F86A00B4F86A60FDF74CF9A0EB080083
:10360000B84202D3781C01D01DE0E7B155EA0600AC
:10361000CCD10022434608212046009701F002FE4B
:1036200028B1D4F8840040F02000C4F8840020467B
:1036300001F09AFD84F881A0D4F8841084F8809079
:1036400081B1012004E7204601F08EFDD4F88420EA
:1036500084F8809042F48071C4F8841084F881A0CA
:103660000320F5E60198F3E67047704770470000C5
:10367000F0B590F83C20012A3BD01F4E012480F881
:103680003C40022280F83D2002681C4D5368B24243
:10369000D2F808C001D0AA4203D14F6823F47003C6
:1036A0003B430F6823F070031F4357600268B24228
:1036B00013D0B2F1804F10D0114B9A420DD0114B64
:1036C0009A420AD0104B9A4207D0AA4205D00F4B1B
:1036D0009A4202D00E4B9A4204D189682CF08003A2
:1036E00019439160002180F83D4080F83C10084665
:1036F000F0BD0220F0BD00000000014000040140C8
:103700000004004000080040000C00400018004089
:103710000040014010B5040003D094F83D0010B102
:1037200007E0012010BD002084F83C00204600F096
:1037300022F8022084F83D002068211D02F0E0FC00
:10374000012084F8480084F83E0084F83F0084F8A3
:10375000400084F8410084F8420084F8430084F873
:10376000440084F8450084F8460084F8470084F853
:103770003D00002010BD704790F83D10012901D098
:1037800001207047174A022180F83D100168CB687C
:1037900043F00103CB600068904214D0B0F1804F39
:1037A00011D0114988420ED0104988420BD01049DF
:1037B000884208D00F49884205D00F49884202D07C
:1037C0000E49884207D181680D4A1140062906D06A
:1037D000B1F5803F03D0016841F001010160002094
:1037E0007047000000000140000400400008004055
:1037F000000C00400004014000180040004001405F
:1038000007000100704770B5044600680025016993
:10381000C943890715D4C168C943890711D4EA1E71
:10382000026101212177206880698007204602D04B
:10383000FFF7E8FF04E000F0A7F8204600F07CF96D
:10384000257720680169C943490717D4C168C9436E
:10385000490713D402216FF0040202612177206826
:10386000806910F4407F204602D0FFF7CBFF04E0D0
:1038700000F08AF8204600F05FF92577206801699A
:10388000C943090716D4C168C943090712D40421E2
:103890006FF00802026121772068C0698007204626
:1038A00002D0FFF7AFFF04E000F06EF8204600F012
:1038B00043F9257720680169C943C90617D4C1684F
:1038C000C943C90613D408216FF0100202612177A1
:1038D0002068C06910F4407F204602D0FFF792FFB5
:1038E00004E000F051F8204600F026F92577206822
:1038F0000169C943C90708D1C168C943C90704D1CF
:10390000891E0161204600F019F920680169C94348
:10391000090609D4C168C943090605D46FF08001BE
:1039200001612046FFF7A1FE20680169C943C9056E
:1039300009D4C168C943090605D46FF480710161D7
:103940002046FFF791FE20680169C943490609D462
:10395000C168C943490605D46FF0400101612046A2
:1039600000F0F6F820680169C94389060BD4C168E4
:10397000C943890607D46FF0200101612046BDE8E4
:103980007040FFF773BE70BD704770B5044690F885
:103990003C0000260D4601280BD0012084F83C0095
:1039A0000C2A4AD007DC82B1042A20D0082A06D18A
:1039B00031E0022070BD102A53D0142A63D00126B2
:1039C000002084F83C00304670BD206802F0FAFB0D
:1039D0002068816941F0080181612068816921F0D6
:1039E0000401816120682A698169114311E020681E
:1039F00002F03CFC2068816941F40061816120682B
:103A0000816921F48061816120682969826942EAC3
:103A100001218161D4E7206802F074FC2068C1694B
:103A200041F00801C1612068C16921F00401C16150
:103A300020682A69C169114311E0206802F0AEFCD8
:103A40002068C16941F40061C1612068C16921F445
:103A50008061C16120682969C26942EA0121C161AE
:103A6000AEE7206802F0D6FC2068416D41F0080105
:103A700041652068416D21F00401416520682A6993
:103A8000416D114311E0206802F0FEFC2068416D99
:103A900041F4006141652068416D21F48061416518
:103AA00020682969426D42EA0121416588E710B525
:103AB000040003D094F83D0010B107E0012010BDD0
:103AC000002084F83C00204600F022F8022084F810
:103AD0003D002068211D02F013FB012084F84800FE
:103AE00084F83E0084F83F0084F8400084F84100E8
:103AF00084F8420084F8430084F8440084F84500C8
:103B000084F8460084F8470084F83D00002010BD8A
:103B100008B500680649884208D10648016841F0A6
:103B200008010160006800F00800009008BD000076
:103B3000000C0040E8440258704700000068034948
:103B4000884201D1FCF7ACBE704700000044014040
:103B5000704730B590F88010012918D0012280F804
:103B600080202421C0F884100022202450F8641BF7
:103B70000B680D6823F0005325F001050D6002600D
:103B800050F8641C0B6004620277104630BD0220BE
:103B900030BD70B5044690F8800001281DD0012288
:103BA00084F880202420C4F8840020680568026816
:103BB00022F0010202602068826822F060620A43FB
:103BC0008260204602F09AFC2268202100201560C5
:103BD000C4F8841084F8800070BD022070BD70B5F8
:103BE000044690F8800001281DD0012284F880202E
:103BF0002420C4F8840020680568026822F00102CD
:103C000002602068826822F060420A438260204697
:103C100002F074FC2268202100201560C4F8841092
:103C200084F8800070BD022070BD10B5040003D080
:103C3000D4F8840010B107E0012010BD002084F802
:103C40008000204600F026F82420C4F88400206874
:103C5000016821F001010160204602F005FD012804
:103C6000EBD0A06A10B1204602F06AFC20684168DF
:103C700021F4904141602068816821F02A0181602F
:103C80002068016841F0010101602046BDE8104054
:103C900002F0BABC10B5B6B0044614212FA8FCF748
:103CA000C3FBBC216846FCF7BFFB1849206888426B
:103CB00029D100241E94012000906846FDF714FAD3
:103CC00008B1FCF785FC1248016841F01001016061
:103CD000006800F0100034900D481038016841F081
:103CE0000201016000682FAB022100F00200349055
:103CF0004FF44040042283E8130006482FA9CDE981
:103D00003242FCF79DFC36B010BD000000100140AF
:103D1000F0440258000402582DE9F8430446D0F854
:103D200084001F4616460D46202852D1DDB1D6B17B
:103D300094F8800001284CD0012084F880002122D2
:103D40004FF00008C4F88C80C4F884201834FCF7C5
:103D5000A1FD814654F8100CA687E687183CB0F503
:103D6000805F03D004E00120BDE8F883206920B122
:103D70002E46002584F8808010E00026FAE7802196
:103D8000204602F047FEB8B9C6B116F8010B21680B
:103D90008862B4F85600401EA4F85600B4F85600E5
:103DA0004B464FF0000200970028E8D14FF0400149
:103DB000204602F02FFE38B10320D5E735F8020B7C
:103DC0002168C0F30800E3E72020C4F88400002045
:103DD000CAE70220C8E7FEE77CB5114C03220021A8
:103DE00006460120A260217360730E490E4801F05F
:103DF000EFFE0E4D05210C4822462B6898470949D5
:103E0000AA68091F08489047FCF744FD6068002233
:103E1000CDE9000623681146AC6B0348A0477CBD82
:103E200048060024700000245806002400000024E6
:103E30002DE9F043124C89B08046914600220F468E
:103E4000DDE9105660681146CDE900030D4823688E
:103E5000D0F838C00C48E04704A8494602F050FEAC
:103E600001AA1021009104A80B4682E86100208875
:103E7000394682B2404600F0CFF809B0BDE8F08381
:103E80004806002400000024580600242DE9FF4FB6
:103E900085B01D460C2B90460C460E460598DDF865
:103EA00050B0DDF848A0CDF800B0049019D0082734
:103EB00015FB07F0400002F0A7FF03A98146534815
:103EC00001F0DCFB514802A901F0E0FBA8F1200160
:103ED0004FF0000001F0FF0E0146BAF1000F3FD095
:103EE00084E00627E4E70C2D0BD0494A02EB0E12C2
:103EF0004FF0000B21F0010A525C130607D5009B1E
:103F000006E0444A0EEB4E0302EB8302F0E7139BFC
:103F100007FB00FC401C5BBA09EB4C0C80B2A842CA
:103F20002CF80A3000D30020029B5206641CA4B275
:103F3000120E9C4245D2A31BAB4208D1059A3446CF
:103F4000039B521C92B205929A423AD206E00BF1C0
:103F5000010303F0FF0BBBF1080FCED3491CC9B21C
:103F6000A942C0D344E00C2D31D0294A02EB0E12F5
:103F70004FF0000A21F00103525C0093130609D5AB
:103F800007FB00FC9BFA9BF309EB4C08DDF800C033
:103F900028F80C30401C80B2A84200D30020029BBD
:103FA0005206641CA4B2120E9C420AD2A31BAB425E
:103FB00013D1059A3446039B521C92B205929A4241
:103FC00012D3484602F0FAFD09B0BDE8F08F114A5D
:103FD0000EEB4E0302EB8302CAE70AF1010303F082
:103FE000FF0ABAF1080FC9D3491CC9B2A942BAD312
:103FF0000C2D09D008200499CDE9000503484B4653
:10400000324601F0A3FADCE70620F4E75806002464
:10401000588D0008E48800082DE9FE4F0D4604463F
:1040200058194FF0000A111987B21FFA81F8DDE91B
:104030000CB604F0FF0916E0444503D305EB0B0072
:104040004C4685B2BD4213D2DDE90E01CDF800A089
:104050005B46CDE9010129462046FFF717FF04EB37
:104060005B0084B2761C3278A2F120005E28E3D98E
:10407000BDE8FE8F064C4FF4FA7508212046FCF788
:10408000F5FB04A002F02CFD284602F0F3FEF4E755
:104090000010025852756E6E696E670D0A000000BE
:1040A0000449054810B5FCF795FA0249491E087005
:1040B00010BD0000A100002490930008074A0021D1
:1040C000074810B502F0BCFF064C0021034A243219
:1040D0002060054802F0B4FF606010BD48930008FE
:1040E00075400008900000247579000830B587B04D
:1040F00014216846FCF798F92248016841F0100144
:104100000160016801F010010591016841F0800132
:104110000160016801F080010591016841F0020130
:104120000160016801F002010591016841F004019C
:104130000160016801F004010591016841F001018D
:104140000160016801F001010591016841F0080179
:104150000160006842F608640B4D002200F0080080
:10416000214605902846FCF789FB00210094012098
:10417000CDE90101284603916946FCF761FA07B0D1
:1041800030BD0000E04402580010025807480021EA
:104190004FF4804310B5044C0522C0E90041C0E94A
:1041A0000213C0E9041210BD0070005290060024F2
:1041B0002DE9F04115484FF480060021124D3401DD
:1041C0000722C0E90321C0E905144FF0A043C0E96C
:1041D000073141629A0081627711C162C0E90D2105
:1041E000C163016441648164C164016541658165A5
:1041F00080E8E000FEF7FCFD002803D0BDE8F041B8
:10420000FCF7E6B9BDE8F081003401400C0700245A
:1042100010B58AB0002468461C21079408940994BC
:10422000FCF702F91448611E124AC0E90024C0E9F3
:10423000024104618461FFF73AFC08B1FCF7C8F958
:104240000D4807A907940994FFF712FA08B1FCF783
:10425000BFF960206946CDE90004074800220294B6
:104260000494FFF792FB002801D0FCF7B1F90AB0E3
:1042700010BD0000000C00409407002418480021E5
:1042800010B5164C0C224FF416530460C0E90131EE
:10429000C160C0E904128161C16101624162816251
:1042A000FFF7C3FC08B1FCF793F90D480021FFF7B5
:1042B00096FC08B1FCF78CF909480021FFF769FC6E
:1042C00008B1FCF785F90648FFF743FC002803D046
:1042D000BDE81040FCF77CB910BD000000100140A3
:1042E000E0070024FEE7FEE72DE9F047454D0446D0
:1042F00089464FF0000A2868C04380070AD0414E23
:10430000283E306820F080603060FCF7C3FA074632
:10431000B04608E00120BDE8F08700BFFCF7BAFA1C
:10432000C01B022867D8D8F800000001F6D4206826
:1043300029684FF4FE0721F47C313E0241EA003047
:104340002860207AA389B4F804C040022D4D2D497D
:104350005B1E227CACF1010C1035091DA0F500702C
:1043600080B2521ECCF3080C07EA034340EA0C006B
:10437000184306EA0262104328600868626920F068
:10438000C000104308600A68A06922F020020243BE
:104390000A60281D0A6822F010020A6002684FF6BF
:1043A000F873E4699A4342EAC40202600868B9F10A
:1043B000000F40F010020A6011D00868B9F1010F37
:1043C00011D040F400100860D8F80000444640F0D6
:1043D0008060C8F80000FCF75DFA05460DE008684B
:1043E00040F40020EFE740F48010ECE7FCF752FACD
:1043F000401B022801D903208DE720680001F5D574
:10440000504688E7284402582DE9F047454D0446B8
:1044100089464FF0000A2868C04380070AD0414E01
:10442000283E306820F080503060FCF733FA0746B1
:10443000B04608E00120BDE8F08700BFFCF72AFA8B
:10444000C01B022867D8D8F800008000F6D4208866
:1044500029684FF4FE0721F07C713E0241EA0050CA
:104460002860207AA389B4F804C040022D4D2D495C
:104470005B1E227CACF1010C1835091DA0F5007003
:1044800080B2521ECCF3080C07EA034340EA0C004A
:10449000184306EA0262104328600868626920F443
:1044A0004060104308600A68A06922F40072024369
:1044B0000A60281D0A6822F480720A6002684FF6BA
:1044C000F873E4699A4342EAC40202600868B9F1E9
:1044D000000F40F480720A6011D00868B9F1010F32
:1044E00011D040F080700860D8F80000444640F0D9
:1044F0008050C8F80000FCF7CDF905460DE00868CB
:1045000040F48000EFE740F40000ECE7FCF7C2F96C
:10451000401B022801D903208DE720688000F5D5D3
:10452000504688E7284402580148FEF753B9000076
:104530009006002430B585B0044637204FF48072D1
:104540000DF1080CCDE90010002369461501204645
:104550008CE82C0000F058FB372141F288322046CD
:1045600000F0DEF905B030BD30B585B00446292035
:104570004FF480720DF1080CCDE90010002369465C
:10458000150120468CE82C0000F03EFB204600F090
:1045900083FA05B030BD30B50446102085B00DF16A
:1045A000080C02010502CDE90010002369468CE8E1
:1045B0002C00204600F028FB102141F288322046D2
:1045C00000F0AEF905B030BD30B585B00446062028
:1045D0004FF480720DF1080CCDE9001000236946FC
:1045E000150120468CE82C0000F00EFB062141F25C
:1045F0008832204600F094F905B030BD30B585B062
:104600000546002469464FF48050009401940294BA
:10461000CDE90340284600F0F7FA0B4A4FF4FA5070
:1046200041F288311268B2FBF0F04843401E03D2D9
:104630004FF0004005B030BD696B0906F6D503495F
:104640002046A963F6E70000B4000024C50020005E
:1046500030B50821044685B04FF4D5704A010023D7
:104660004D028DE82F006946204600F0CDFA204625
:1046700000F07CFA05B030BD30B585B0044612209C
:104680004FF480720DF1080CCDE90010002369464B
:10469000150120468CE82C0000F0B6FA122141F2F8
:1046A0008832204600F03CF905B030BD30B585B009
:1046B000044611204FF480720DF1080CCDE9001072
:1046C00000236946150120468CE82C0000F09CFA76
:1046D000112141F28832204600F022F905B030BDA8
:1046E00030B585B0044607204FF480720DF1080CF8
:1046F000CDE9001000236946150120468CE82C0006
:1047000000F082FA072141F28832204600F008F9D1
:1047100005B030BD10B585B00446002102204FF42D
:104720004072C3020493CDE90010CDE9022169462D
:10473000204600F069FA204600F084F905B010BD6B
:1047400030B585B0044609200DF1080C0023CDE9F1
:1047500000104FF4407269464FF4805520468CE8B3
:104760002C0000F051FA204600F06CF905B030BD85
:1047700010B585B00446002133204FF48072CDE996
:104780000221CDE90010130169462046049300F090
:104790003BFA332141F28832204600F0C1F805B0DF
:1047A00010BD30B585B004460D204FF480720DF178
:1047B000080CCDE9001000236946150120468CE85D
:1047C0002C0000F021FA0D2141F28832204600F041
:1047D000A7F805B030BD30B585B00C4600210546C0
:1047E00003204FF48072CDE90221CDE900101301BE
:1047F00069462846049300F007FA0321224628461A
:1048000000F06EF905B030BD10B585B0044600214A
:104810000D204FF48072CDE90221CDE90010130183
:1048200069462046049300F0EFF90D2141F28832E9
:10483000204600F075F805B010BD000010B585B039
:1048400004464FF4807200200C2113018DE807000C
:10485000CDE90303E06840F08000E060E06820F00C
:104860004000E0606946204600F0CEF9074A0C217E
:10487000204600F055F8E168B0F1007F21F080019A
:10488000E16000D1002005B010BD000000E1F50599
:1048900030B585B0044619204FF480720DF1080C34
:1048A000CDE9001000236946150120468CE82C0054
:1048B00000F0AAF9192141F28832204600F030F8C0
:1048C00005B030BD30B585B0044618204FF4807275
:1048D0000DF1080CCDE900100023694615012046B2
:1048E0008CE82C0000F090F9182141F28832204623
:1048F00000F016F805B030BD70B50A6842624A682B
:104900008262C46AD1E90225D1E9043624F0FF01AC
:104910002A4333431A431143C162002070BD000093
:1049200030B5464D4FF4FA53434C2D68B5FBF3F3C5
:1049300053435B1E02D24FF0004030BD426B224217
:10494000F7D09204F5D4426B520703D5042181635A
:10495000084630BD426BD20702D00121816306E0D8
:10496000354A803282630269D2B28A4201D0012084
:1049700030BD002100F02AF93149084201D1002060
:1049800030BD002802DA4FF0007030BD410001D583
:10499000402030BD810001D5802030BDC10002D54E
:1049A0004FF4807030BD010102D54FF4007030BD6E
:1049B000410102D54FF4806030BDC10102D54FF4F2
:1049C000006030BD010202D54FF4805030BD41027D
:1049D00002D54FF4005030BD810202D54FF4804023
:1049E00030BDC10202D54FF4004030BD410302D5B5
:1049F0004FF4003030BD810302D54FF4802030BD2C
:104A0000C10302D54FF4002030BD010402D54FF49C
:104A1000801030BD410402D54FF4001030BD810438
:104A200002D54FF4800030BD000702D54FF40000DE
:104A300030BD4FF4803030BD45002000B40000246C
:104A400008E0FFFD124B4FF4FA5141F288321B6827
:104A5000B3FBF1F15143491E02D24FF000407047C1
:104A6000426B12F0450FF6D09204F4D4416B490723
:104A700003D50421816308467047416BC90703D001
:104A80000121816308467047024981630020704715
:104A9000B4000024C50020000F4B4FF4FA5141F23E
:104AA00088321B68B3FBF1F15143491E02D24FF02B
:104AB00000407047426B12F0450FF6D09204F4D4D8
:104AC000416B490703D504218163084670470349B8
:104AD0008163002070470000B4000024C50020005E
:104AE00030B5204D4FF4FA5341F288342D68B5FBB0
:104AF000F3F363435B1E02D24FF0004030BD446BC2
:104B000014F0450FF6D0A404F4D4436B5B0703D52F
:104B100004218163084630BD436BDB0702D00121CD
:104B2000816303E00369DBB28B4201D0012030BD19
:104B30000D498163002100F049F810F4604F04D062
:104B4000410406D54FF4005030BD000C1080002009
:104B500030BD000402D54FF4805030BD4FF480309A
:104B600030BD0000B4000024C5002000144B4FF4F9
:104B7000FA5141F288321B68B3FBF1F15143491EEF
:104B800002D24FF000407047426B12F0450FF6D052
:104B90009204F4D4416B490703D50421816308468C
:104BA0007047416BC90703D00121816308467047F4
:104BB000416B490601D54021816300207047000008
:104BC000B4000024006800F0030070470844406906
:104BD0007047000030B511434268DDE903542B43B0
:104BE000034D194321432A400A434260002030BD4F
:104BF000002CC0FF016841F00301016000207047F4
:104C0000D0F880007047000070B5084D0A688260D7
:104C1000C368D1E90126D1E903412B4032430C435B
:104C200022431343C360002070BD0000C0E0FEFFBC
:104C30000968C0F8801000207047000010B5064CCD
:104C400001202070FBF75EFC18B9207820F00100ED
:104C50002070207810BD00009800002470B5054633
:104C600002F026F9044603E0FBF74CFC002806D0CE
:104C700002F01EF9001BA842F6D34FF0FF3070BDC2
:104C80002DE9F04F87B00D460446FBF703FE0026E2
:104C9000069020680821B3463746FFF77CFC0028C1
:104CA00033D1B4F8441020680904FFF743FC00280E
:104CB0002BD1431E4FF008094FF0020A4FF0300C81
:104CC0004FF00108CDF80CA08DE80812CDE904687A
:104CD00020686946FFF710FE2068FFF749FD0028AD
:104CE00013D140F22A582068416B11EA080F06D10F
:104CF000416B090315D4BBF1000F09D011E0416BE2
:104D0000090717D5C0F83890082007B0BDE8F08F24
:104D1000FFF776FF06462068FFF772FF07464FF061
:104D2000010BFBF7B7FD0699401A401CDBD14FF091
:104D30000040EAE7416B890703D5C0F838A002209C
:104D4000E3E7416B890603D5202181630846DCE750
:104D5000034A39BA33BA82630020C5E90013D4E7A5
:104D60003A0F001870B58CB004460020ADF82C0046
:104D7000FBF790FD05462068FFF724FF002853D07D
:104D8000A06B032841D02068FFF7C4FC002849D15C
:104D900020680021FFF71AFFE06604212068FFF772
:104DA00015FF206708212068FFF710FF60670C21BE
:104DB0002068FFF70BFFA16BA067032925D041F204
:104DC000883600BFBDF82C0088B3A06B03281CD028
:104DD000BDF82C10616420680904FFF7B1FC0028BD
:104DE00020D120680021FFF7F1FEE0650421206852
:104DF000FFF7ECFE206608212068FFF7E7FE6066FB
:104E00000C212068FFF7E2FEA06604212068FFF76E
:104E1000DDFE000D694620642046FDF76FFBA8B15A
:104E20004FF080500CB070BD4FF08060FAE7FFE7A4
:104E300020680BA9FFF7CFFC0028F3D1FBF72AFD70
:104E4000401BB042BED34FF00040EBE7B4F8441033
:104E500020680904FFF744FCE4E700002DE9F84F5F
:104E6000002604463546B04600960068FFF7C6FBAC
:104E7000002829D12068FFF7EBFBB0F1004F4FF07D
:104E800001094FF0805B4FF6FF7702D0C4F83C90E9
:104E900008E0E6632068FFF7B1FB002814D1E06B5F
:104EA00001281ED120680021FFF744FB58B918E003
:104EB00020680021FFF73EFB002805D120685146FD
:104EC000FFF752FB10B15846BDE8F88F206800216B
:104ED000FFF77CFE4FEAD07805460098401C009012
:104EE00002E0DFF828A00098B84202D2B8F1000F23
:104EF000DED00098B84202D34FF08070E4E768003B
:104F0000A66301D5C4F838900020DDE7000010C189
:104F10002DE9F04186B00D460446FBF7BBFC0021AD
:104F200007462068FFF752FE800104D54FF4006069
:104F300006B0BDE8F08120684021FFF72CFBC0B926
:104F4000B4F8441020680904FFF7F4FA88B9402146
:104F50004FF0FF3060224FF0010C022300268DE855
:104F60004F1020686946FFF7C7FC2068FFF74CFC2C
:104F700098B1616B6163DBE7406B000407D50026E5
:104F80002068FFF73DFE761C082E01C5F8D3FBF71D
:104F900081FCC01B401C02D127E04FF00048206874
:104FA000416B11F4957FE7D0416B090701D50820CB
:104FB000BEE7416B890701D50220B9E7406B800647
:104FC0000AD52020B4E700BFFFF71AFE01C5FBF7A2
:104FD00061FCC01B401C08D02068416BC904F3D49D
:104FE0000146034888630020A2E74046A0E700008E
:104FF0003A0F001870B5104C05460120207001F0E2
:1050000047FF022816D1FBF789FA18B92846FFF79F
:1050100015FE2070207801280CD0606850B900225D
:1050200002210A2001F0ACFF606018B9207840F03E
:1050300001002070207870BD98000024144810B53D
:105040008AB014460078C00702D003200AB010BD11
:1050500039B1012907D002290BD0032910D004202F
:10506000F4E70020F2E76846FBF746FA06990020CD
:105070000CE06846FBF740FA079900202180E5E73D
:105080006846FBF739FA07990020490A2160DDE7F5
:10509000980000242DE9F84347F230541E460125BC
:1050A000174688462046FFF7D9FD00281EDB32460A
:1050B00039464046FBF752FAC0B90F480022234652
:1050C0006946406801F02AFF80B9BDF80000012858
:1050D0000CD101F0EDFE064603E000BFFBF712FA2B
:1050E00038B101F0E5FE801BA042F7D32846BDE8A9
:1050F000F8830025FAE7000098000024FFF79EBD22
:105100002DE9F84347F230541E46012517468846DC
:105110002046FFF7A3FD00281EDB324639464046F5
:10512000FBF738FAC0B90F480022234669464068A9
:1051300001F0F4FE80B9BDF8000002280CD101F0A6
:10514000B7FE064603E000BFFBF7DCF938B101F01B
:10515000AFFE801BA042F7D32846BDE8F8830025A8
:10516000FAE700009800002410B5026840F26F339F
:105170005169946944F0080494610268946944F0A8
:10518000100494610268146824F001041460026839
:1051900014699C4314610268936823F4404393604C
:1051A00090F88120042A0CD08A060AD5D0F88420F1
:1051B00042F08002C0F884200268936943F0200323
:1051C000936190F88120032A0CD04A060AD5D0F8C2
:1051D000842042F00402C0F884200268936943F0FE
:1051E000400393618A050AD5D0F8842042F0010279
:1051F000C0F884200268936943F400739361C90581
:105200000AD5D0F8841041F00801C0F88410016874
:105210008A6942F480728A610021A0F86210A0F8C5
:105220006A1010BD2DE9F041984616460D46074616
:10523000069C09E0FBF72EFBA0EB0800A04202D37E
:10524000601C01D00BE054B13868406935EA0000B9
:1052500007D00020B042EDD00020BDE8F08103204F
:10526000FBE70120F6E7002070470000F8B5044690
:105270006A46002003468DF8000004F12000132147
:10528000054602F092FB0A210646204600F006FA87
:1052900000236A462821284602F087FB0644204660
:1052A0000A2100F0FBF900236A463621284602F065
:1052B0007CFB01460B488C190B49027B806801EB93
:1052C000C00000790AB940F00800694601228DF853
:1052D0000000284602F062FB001901D04FF0FF30B9
:1052E000F8BD0000480600244C000024F8B5044630
:1052F0006A46002003468DF8000004F120001321C7
:10530000054602F052FB0A210646204600F0C6F987
:1053100000236A462921284602F047FB064420461E
:105320000A2100F0BBF900236A463621284602F024
:105330003CFB01460B488C190B49027B806801EB52
:10534000C00000790AB940F00800694601228DF8D2
:105350000000284602F022FB001901D04FF0FF3078
:10536000F8BD0000480600244C0000242DE9FF4F42
:1053700093F8038093469C7883B0DF7A4FF000095E
:1053800093F80CC004EB0824997ACA4693F80D8070
:10539000DE7C01EB07211F7D4FEA0C4C9A7C0CEB65
:1053A000086893F815C08844DD7D3F0402EB0622AF
:1053B0001E7E987D07EB0C6C5F7E6244360400EB2A
:1053C00005201D7906EB07665F7930442D0405EB57
:1053D0000767324D3C4403EB080613466D680090A6
:1053E000A5EB0B05291AA4EB080B88460A46DDE954
:1053F000030100F089FC4FF0FF35E8BB274C284F34
:10540000207B0028A06817F8300001D140F0080088
:105410008DF804000398012336212030009001AA62
:1054200002F0C3FA40BBDDE90301424600F006FC8E
:1054300010BB707802228DF8080002A930788DF830
:105440000900009802F0AAFA08B1A94604E0B61CC7
:105450000AF1020ADA45ECD3207B0028A06807EBAA
:10546000C000007901D140F008008DF8040001234C
:105470000098362101AA00E00BE002F096FA40B94C
:1054800060680022009011462368039800F03CFCFD
:1054900000B1A94607B04846BDE8F08F4806002491
:1054A0004C0000242DE9F0411D46144B0024804699
:1054B000069F48194FF0FF361B68984219D840469E
:1054C00000F0BCFBA8B90E490020C7F30722FBB2CD
:1054D00006E000BF01EB400701F81020401C7B7084
:1054E000A842F7D306496A0008F1200002F056FAF4
:1054F00000B134462046BDE8F08100004806002493
:10550000C80300242DE9F05F8A460F491E468346F2
:10551000DDF8289090190025174649684FF0FF38AC
:10552000884208D8002409E03A194B4651465846AB
:1055300000F0C6FC08B1454602E0641CB442F3D357
:105540002846BDE8F09F0000480600242DE9FF5FD3
:105550001D481C4691468B46DDE90E674FF0FF3A29
:105560004FF0000803688A199A4204D8416809EB91
:105570000700884201D9D04622E000251EE000BF86
:10558000009809EB0502594600F058FBA0B90F49F5
:10559000002008E0227801F8102001EB4002637837
:1055A000401CA41C5370B042F4D300987200074909
:1055B000203002F0F3F900B1D0466D1CBD42DFD3BC
:1055C00004B04046BDE8F09F48060024480100248E
:1055D0002DE9F84F002699468A468346DDE90A7888
:1055E000144635460DE04B46224651465846CDF806
:1055F0000080FFF757FF10B14FF0FF3603E0641C47
:105600006D1CBD42EFD33046BDE8F88F4FF0FF3040
:105610007047000002488068086000207047000062
:1056200048060024FEB51C46054600F007FB06466A
:1056300005F120002E21054602AA02F0A1F9064438
:105640002846012202A902F0A2F906446946012275
:10565000284602F09CF906442846012201A902F0DE
:1056600096F99DF8042080199DF8001001EB0221A5
:10567000216001D04FF0FF30FEBD000002480068FD
:105680000860002070470000480600240248406877
:1056900008600020704700004806002470B50546E9
:1056A000C0690E4680470446E8698047001BB04247
:1056B000FAD3002070BD2DE9F74F5FEA000982B0F0
:1056C0007DD04FF0000B6A4601215C4609F12000B5
:1056D0005B468DF800B0019002F067F978214846EA
:1056E000FFF7DCFF0198002301216A468DF8004096
:1056F00002F05BF9782105464846FFF7CFFF019895
:10570000012311216A468DF8004002F04EF9002372
:105710006A46B1210544019802F047F946190198FB
:10572000012569462A468DF8005002F037F987199D
:1057300001982C26694601228DF8006002F02EF9AE
:1057400000EB07084FF02D0A0198012257466946E1
:105750008DF800A002F022F901236A46B2218DF8EB
:1057600000508044019802F020F9012269468044EB
:1057700001988DF8006002F011F901226946804419
:1057800001988DF8007002F009F901236A46B321EF
:105790008DF800508044019802F007F90122694613
:1057A000804401988DF8006002F0F8F80122694603
:1057B000804401988DF8007002F0F0F800E0CCE130
:1057C00001226946804401988DF8005002F0E6F805
:1057D0000122694600EB080501988DF8006002F08F
:1057E000DDF846190198012269468DF8007002F033
:1057F000D5F807256A4601238DF80050B4210644E8
:10580000019802F0D2F8A2216A4687190198012373
:105810008DF80010C02102F0C8F802266946012266
:105820008DF800600744019802F0B8F884218DF8E3
:105830000010012269460744019802F0AFF8C52123
:105840006A4601238DF80010C1210744019802F037
:10585000ACF80A216A4601238DF80010C2210744E2
:10586000019802F0A2F801226946074401988DF8D8
:10587000004002F093F88A246A4601238DF8004024
:10588000C3210744019802F090F82A218DF80010F6
:10589000012269460744019802F080F801236A4614
:1058A000C4218DF800400744019802F07EF8EE21F3
:1058B0008DF80010C41901980122694602F06EF8B3
:1058C0000E216A4601238DF80010C5210444019879
:1058D00002F06BF8049904444FF000036A46097B18
:1058E00000297ED02021019802F05FF801233A219F
:1058F0000444019803AA02F058F80123B046E021BD
:105900006A46044401988DF8006002F04EF81C21AC
:105910008DF80010012269460444019802F03EF817
:1059200001226946044401988DF8005002F036F8CF
:1059300012218DF80010012269460444019802F0FA
:105940002DF837218DF80010012269460444019892
:1059500002F024F832218DF8001001226946044437
:10596000019802F01BF82926694601228DF8006093
:105970000444019802F012F8012269460444019897
:105980008DF800A002F00AF801226946044401984B
:105990008DF8006002F002F825218DF80010012238
:1059A00069460444019801F0F9FF2B218DF800109D
:1059B000012269460444019801F0F0FF39218DF875
:1059C0000010071901980122694601F0E7FF012242
:1059D0005C460744019869468DF800B001F0DEFF8F
:1059E00000E0BFE001218DF80010074401980A464D
:1059F000694601F0D3FF01224FF0030B07440198E1
:105A000069468DF800B001F0C9FF074469461020CF
:105A10008DF800000198012201F0C0FF01236A46C1
:105A2000E1218DF800B00744019801F0BEFF074462
:105A300069461D208DF800000198012201F0AEFF9B
:105A400001226946074401988DF8005001F0A6FF35
:105A500006218DF80010012269460744019801F0E3
:105A60009DFF2E25694601228DF8005007440198BC
:105A700001F094FF074469462C208DF8000001983E
:105A8000012201F08BFF01226946074401988DF83D
:105A9000006001F083FFC6190198012269468DF864
:105AA00000A001F07BFF01226946064401988DF8B1
:105AB000005001F073FF01226946064401988DF8F9
:105AC000005001F06BFF37218DF800108519019807
:105AD0000122694601F062FF3F218DF8001001228A
