:020000040800F2
:1000000070500024F9030008E91B00088B17000852
:10001000C91B000843060008AD1E000800000000D0
:10002000000000000000000000000000390300088C
:10003000F50600080000000095030008091C0008F0
:100040001304000813040008130400081304000834
:100050001304000813040008130400081304000824
:100060001304000813040008130400081304000814
:100070001304000813040008130400081304000804
:1000800013040008130400081304000813040008F4
:1000900013040008130400081304000829070008CB
:1000A00013040008130400081304000813040008D4
:1000B00013040008130400081304000813040008C4
:1000C00013040008130400081304000813040008B4
:1000D00013040008130400081304000813040008A4
:1000E00013040008130400080000000013040008B3
:1000F0001304000813040008130400081304000884
:100100001304000813040008DD1D00081304000890
:100110001304000813040008130400081304000863
:100120001304000813040008130400081304000853
:100130001304000813040008130400081304000843
:1001400000000000000000000000000000000000AF
:100150001304000813040008130400081304000823
:100160001304000813040008130400081304000813
:100170001304000813040008130400081304000803
:1001800013040008130400081304000813040008F3
:1001900013040008130400081304000813040008E3
:1001A00013040008130400081304000813040008D3
:1001B00013040008130400081304000813040008C3
:1001C00013040008130400081304000813040008B3
:1001D00013040008130400081304000813040008A3
:1001E0001304000813040008130400081304000893
:1001F0001304000813040008130400081304000883
:100200001304000813040008130400081304000872
:100210001304000813040008130400081304000862
:100220001304000813040008130400080000000071
:100230001304000813040008000000001304000861
:100240001304000813040008130400081304000832
:100250001304000813040008130400081304000822
:100260001304000813040008130400081304000812
:100270001304000813040008130400080000000021
:100280001304000813040008130400080000000011
:10029000000000001304000800F002F800F03CF831
:1002A0000AA090E8000C82448344AAF10107DA45D1
:1002B00001D100F031F8AFF2090EBAE80F0013F0E7
:1002C000010F18BFFB1A43F001031847283500003F
:1002D00048350000103A24BF78C878C1FAD85207D0
:1002E00024BF30C830C144BF04680C6070470000B0
:1002F0000023002400250026103A28BF78C1FBD82F
:10030000520728BF30C148BF0B6070471FB503F0CC
:100310004BFA1FBD10B510BD00F059F91146FFF79B
:10032000F5FF01F0D5FD00F077F903B4FFF7F2FF18
:1003300003BC00F07FF900002C4B19680868B0E896
:10034000F04F80F30988BFF36F8F4FF0000080F308
:10035000118870470000000008480068006880F3BA
:1003600008884FF0000080F3148862B661B6BFF3CE
:100370004F8FBFF36F8F00DF00BF00BF08ED00E0BD
:10038000DFF80C00016841F470010160704700BFA4
:1003900088ED00E0EFF30980BFF36F8F134B1A680D
:1003A0001EF0100F08BF20ED108A20E9F04F1060FA
:1003B00009B44FF0500080F31188BFF34F8FBFF3A3
:1003C0006F8F02F0BBFC4FF0000080F3118809BC76
:1003D00019680868B0E8F04F1EF0100F08BFB0ECC5
:1003E000108A80F30988BFF36F8F704720000024C4
:1003F000EFF305807047000009488047094800472F
:10040000FEE7FEE7FEE7FEE7FEE7FEE7FEE7FEE7C4
:10041000FEE7FEE704480549054A064B7047000021
:10042000011D000899020008704A00247050002441
:10043000704C0024704C0024032A40F2308010F0ED
:10044000030C00F0158011F8013BBCF1020F62446F
:1004500098BF11F801CB00F8013B38BF11F8013B00
:10046000A2F1040298BF00F801CB38BF00F8013BAD
:1004700011F0030300F05780083AC0F0088051F8EB
:10048000043B083A51F804CBA0E80810F5E7121D28
:100490005CBF51F8043B40F8043BAFF30080D20747
:1004A00024BF11F8013B11F801CB48BF11F8012B13
:1004B00024BF00F8013B00F801CB48BF00F8012B36
:1004C000704702F0FF0343EA032242EA024200F0CF
:1004D0005EB84FF0000200B51346944696462039A8
:1004E00022BFA0E80C50A0E80C50B1F12001BFF4ED
:1004F000F7AF090728BFA0E80C5048BF0CC05DF853
:1005000004EB890028BF40F8042B08BF704748BFA0
:1005100020F8022B11F0804F18BF00F8012B704714
:1005200070477047704710B5203AC0F00B80B1E8B3
:100530001850203AA0E81850B1E81850A0E8185018
:10054000BFF4F5AF5FEA027C24BFB1E81850A0E821
:10055000185044BF18C918C0BDE810405FEA827C3B
:1005600024BF51F8043B40F8043B08BF7047D20752
:1005700028BF31F8023B48BF11F8012B28BF20F8F3
:10058000023B48BF00F8012B70474FF000020429DE
:10059000C0F0128010F0030C3FF49DAFCCF1040CBE
:1005A000BCF1020F18BF00F8012BA8BF20F8022BE6
:1005B000A1EB0C01FFF78FBF5FEAC17C24BF00F8FD
:1005C000012B00F8012B48BF00F8012B704775463E
:1005D00000F02CF8AE4605006946534620F00700AF
:1005E000854618B020B5FFF715FFBDE820404FF055
:1005F00000064FF000074FF000084FF0000B21F00D
:100600000701AC46ACE8C009ACE8C009ACE8C009D9
:10061000ACE8C0098D46704710B50446AFF30080C2
:100620002046BDE81040FFF780BE0000004870473C
:100630000C4A002401491820ABBEFEE72600020048
:100640007047FEE72DE9F0410446294D00204FF4A4
:1006500080170646E0704FF4001820713CE0E27805
:10066000824213D223798B4210D21020A86120201D
:10067000A8610A2000F040F8AF61C5F818800A2090
:1006800000F03AF8E078401CE07020E082420FD29F
:1006900023798B420CD31020A8610A2000F02CF89B
:1006A000AF610A2000F028F8E078401CE07011E00B
:1006B00082420FD3207988420CD22020A8610A20E0
:1006C00000F01AF8C5F818800A2000F015F8207913
:1006D000401C2071761CF6B26078A178884201D95E
:1006E000024600E00A46B242B9D8BDE8F0810000F7
:1006F000000002587047000070B50A4D4FF6FA76B8
:10070000301A84B229684C62284600F0D5FE286869
:1007100001E0416A8CB2B442FBD3BDE870400148AD
:1007200000F050BFA0000024402010B501F00AF9ED
:100730004FF0B04410B14020C4F88800802001F090
:1007400001F9002802D08020C4F8880010BD72B6DC
:10075000FEE7000001480068000C70470010005CD4
:1007600001488068704700000C000024024881683E
:1007700002781144816070470C000024032010B5FA
:1007800000F0FEF800F0C8FA0F4A10491468136828
:10079000C4F3032203F00F038A5CC95C02F01F025A
:1007A00001F01F01D0400A4A20FA01F11160094905
:1007B00008600F2000F010F808B1012010BD00F013
:1007C0009FF8002010BD000018440258D8370008D8
:1007D0001C0000241800002410B5102804468AB01C
:1007E0002CD200220146322000F0AAF8322000F07C
:1007F00099F8174804601748016841F00801016042
:10080000006809A900F008000890684600F022FA84
:100810000598B0B100F06EFA40000F4900220F4C6D
:10082000B0FBF1F10E4840F2E7330460C0E9033257
:10083000491EC0E9011200F0F9FD28B101200AB0FB
:1008400010BD00F057FAE8E7054800F075FEF6E73E
:1008500010000024E844025840420F00000C004001
:10086000EC000024F0B5154C4378211D0A1D2360CF
:100870000378F3B143680B60057BC67A817A437BCA
:100880002D07847B45EA0665C77B90F809C0067A88
:1008900090F800E045EAC14040EA834040EA444025
:1008A00040EA074040EA0C2040EA460040EA0E00D9
:1008B00001E0002008601060F0BD000098ED00E04D
:1008C000BFF35F8F044800210368034A23F4803399
:1008D000036070321160704724ED00E0074A40F079
:1008E0000100064970321060086840F480300860EA
:1008F000BFF34F8FBFF36F8F7047000024ED00E010
:10090000074882B0016841F00201016000680022DE
:100910000F2100F002000090901E02B000F010B80D
:10092000F4440258002809DB410900F01F02890045
:10093000012001F1E0219040C1F800017047000062
:100940000E4BF0B41B680D46C3F30223C3F1070638
:10095000042E00D90426191D072901D2002300E026
:10096000DB1E012404FA06F19C40491E2940641E46
:10097000994014402143F0BC01F099BA0CED00E01D
:10098000064900F0070210B54FF6FF040868044B53
:10099000204040EA02201843086010BD0CED00E042
:1009A0000000FA05134970B50A68D243520705D50D
:1009B000096801F00701814213D118E00A6822F0AA
:1009C000070202430A60FFF7CBFE0A4D4FF47A7626
:1009D0000446083D07E000BFFFF7C2FE001BB0421F
:1009E00001D9012070BD2868C0438004F4D40020E0
:1009F00070BD00000C4802582DE9F05F04000F465E
:100A00007ED0DFF83882D8F8000000F00F00B8423E
:100A10000CD2D8F8001021F00F013943C8F80010AB
:100A2000D8F8000000F00F00B84269D12078844D5A
:100A300040070AD52069296801F07001884204D96D
:100A4000296821F070010143296020787C4E361D11
:100A500000070AD56069316801F07001884204D945
:100A6000316821F07001014331602078C0060AD559
:100A7000A069316801F4E061884204D9316821F449
:100A8000E061014331602078DFF8B4B180060BF1FA
:100A9000080B0CD5E1695846DBF8002002F0700223
:100AA000914204D9026822F070020A430260207861
:100AB00080070AD5E068296801F00F01884204D94F
:100AC000296821F00F01014329602078C0073ED03A
:100AD0005B49A2682868183920F4706010432860C8
:100AE0006068022818D0032819D00968012819D095
:100AF000490700294ADADFF848A1AAF1080A00E00C
:100B000044E0DAF8002022F007020243CAF800208D
:100B1000FFF726FE814612E009688903E9E70968C4
:100B20008901E6E7C905E4E7FFF71AFEA0EB090132
:100B300041F28830814202D90320BDE8F09F61680C
:100B4000DAF8000000F03800B0EBC10FECD12078EB
:100B500080070AD5E068296801F00F01884204D2B5
:100B6000296821F00F0101432960D8F800104046A0
:100B700001F00F01B9420BD9016821F00F0139438F
:100B80000160006800F00F00B84201D00120D4E7F6
:100B9000207840070AD52069296801F07001884251
:100BA00004D2296821F070010143296020780007F0
:100BB0000AD56069316801F07001884204D2316859
:100BC00021F07001014331602078C0060AD5A06988
:100BD000316801F4E061884204D2316821F4E061B7
:100BE00001433160207880060CD5E1695846DBF876
:100BF000002002F07002914204D2026822F07002DA
:100C00000A43026000F088F80E492A682B68C2F394
:100C1000032203F00F038A5CC95C02F01F0201F09B
:100C20001F01D040084A20FA01F11160074908600D
:100C300007480068BDE8F05FFFF7CEBD0020005216
:100C400018440258D83700081C000024180000245B
:100C50001000002470B5144C3F220260124A246830
:100C60000832131D114D04F00704446016681C1D62
:100C700006F470668660166806F00F06C660126895
:100C800002F0700202611A6802F0700242611A6892
:100C900002F4E0628261226802F07002C261286898
:100CA00000F00F00086070BD104402580020005290
:100CB00030B500F031F80B4A0B490C4B156814683D
:100CC000C5F3032204F00F048A5C095D02F01F02E1
:100CD00001F01F01D040064A20FA01F119601060AE
:100CE000084630BD18440258D83700081C000024BC
:100CF0001800002400B5FFF7DBFF05490968054A25
:100D0000C1F30211515C01F01F01C84000BD000099
:100D10001C440258D8370008454970B54548096851
:100D2000434B103B11F0380208D00111082A03D0C0
:100D3000102A0BD0182A0BD0084670BD19688906F6
:100D4000FBD51968C1F3C101C84070BD3A4870BDF8
:100D50003749374D18310C1D24350A680968266853
:100D60002D6802F0030406F00102C1F30511C5F37A
:100D7000CC0515FB02F200EE102AB8EE400AE9B3EA
:100D80002F4ADFED2E0AB7EE001A6CB1DFED2D1AF7
:100D9000012C01D0022C43D002EE101A1068F8EE9C
:100DA000422A81EEA22A1EE01C68A40611D51B6807
:100DB00001EE901A1168C3F3C103F8EE612AD8401E
:100DC00001EE900AC1F30800F8EE611A81EEA22A42
:100DD0000BE001EE901ADFED1C2A00BFF8EE611A5D
:100DE000106882EEA12AC0F3080001EE900AF8EE26
:100DF000611A40EE201A31EE810A00E015E022EE81
:100E0000000A1068C0F34620401C00EE900AF8EE7D
:100E1000600A80EE201ABCEEC10A10EE100A70BD06
:100E200001EE901ADFED092AD8E7002070BD00001E
:100E3000104402580090D00340787D010000003932
:100E4000304402580024744A0024744C20BCBE4B29
:100E50002DE9F05F04007DD0FF4F2078FE4D18375C
:100E6000DFF8F493103DC00748D0D9F80000396886
:100E700000F03800102815D0182803D101F0030025
:100E800002280FD06068B0F5803F12D010B1B0F5E5
:100E9000A02F18D0286820F480302860286820F41B
:100EA000802009E02868800328D560680028D2D017
:100EB00024E0286840F480302860606888B1FFF73B
:100EC0004FFC064609E0286840F480202860F0E7DF
:100ED000FFF746FC801B64286FD828688003F7D58D
:100EE0000CE0FFF73DFC064605E000BFFFF738FCCD
:100EF000801B6428F0D828688003F7D4207841F25A
:100F00000308D54E0C3E800769D5D9F80000396832
:100F100010F038000ED0182801D188070AD0E068F8
:100F200090B3296821F0190101432960FFF718FCEB
:100F3000824631E02868400702D5E06800288AD060
:100F4000E168286820F0190008432860FFF708FCD2
:100F5000824607E0DFE000BFFFF702FCA0EB0A00DB
:100F60000228B9D828684007F6D500BFFFF7F2FB82
:100F700040451BD82069402812D0316821F47C31CB
:100F800041EA003030602AE018E000BFFFF7E8FBDC
:100F9000A0EB0A0002289FD828684007F6D5E5E7AD
:100FA000306820F47C3040F40030EBE7207C31687E
:100FB00021F0FE4141EA0060E4E70DE1286820F0FD
:100FC00001002860FFF7CCFB824605E0FFF7C8FB75
:100FD000A0EB0A0002288DD828684007F6D42078B4
:100FE000C0065DD5D9F80000DFF86CB2396800F0B2
:100FF0003800ABF1040B082810D0182803D101F0F9
:10100000030001280AD0E0690028286838D040F0A1
:1010100080002860FFF7A4FB824623E02868C00513
:1010200023D5E069802876D11FE0206A202821D0CE
:10103000316821F0F84141EA8060306030E000BF63
:1010400094F82010DBF8002022F07C5242EA016183
:10105000CBF8001024E000BFFFF782FBA0EB0A00F2
:10106000022898D82868C005F6D5FFF773FB4045DD
:10107000E6D8DAE7306820F0F84040F08040DCE75E
:1010800020F080002860FFF76BFB064605E000BFFC
:10109000FFF766FB801B02289DD82868C005F7D49F
:1010A0002078000729D56C486169643000298046A2
:1010B000016811D041F001010160FFF751FB0646C4
:1010C00005E000BFFFF74CFB801B0228C9D8D8F809
:1010D00000008007F6D510E021F001010160FFF764
:1010E0003FFB064605E000BFFFF73AFB801B0228E6
:1010F00072D8D8F800008007F6D42078800623D56F
:10110000A0690028286810D040F480502860FFF7BC
:1011100027FB064605E02CE1FFF722FB801B022897
:101120005AD828688004F7D50EE020F48050286053
:10113000FFF716FB064604E0FFF712FB801B0228B0
:101140004AD828688004F7D4207840074FD5DFF8C4
:101150000C81D8F8001041F48071C8F80010FFF736
:10116000FFFA064605E000BFFFF7FAFA801B642885
:1011700032D8D8F80000C005F6D5374EA0686036E2
:1011800001280AD008B1052813D0306820F00100EA
:101190003060306820F0040002E0306840F0010068
:1011A0003060A06841F2883A90B1FFF7D9FA8046E2
:1011B0000AE0306840F004003060EEE7FFF7D0FA54
:1011C000A0EB0801514507D830688007F6D50EE03E
:1011D000FFF7C6FA804607E084E000BFFFF7C0FAD9
:1011E000A0EB080151457DD830688007F6D4606ACD
:1011F000B0B3DFF86480D9F8001008F12008C1F31B
:10120000C20103296FD00228286820F0807028606E
:1012100003D0FFF7A5FA044680E0FFF7A1FA0646DF
:1012200005E000BFFFF79CFA801B022873D82868EE
:101230008001F7D4E26A40F2F331386854F8283F6D
:10124000884340EA021018433860217B4FF4FE0CBB
:1012500022894FF0FE4704E010440258004802582B
:1012600089E0208A4902521E267DA1F5007189B2CB
:10127000401EC2F308021143761E0CEA00400143EF
:101280003E4807EA066211433C4AC8F8001008329B
:10129000016821F00101016011684FF6F876236AB8
:1012A000B14341EAC30111600168A26921F00C0158
:1012B000114301600168E26921F0020111430160FC
:1012C000016841F480310160016841F4003101603E
:1012D000016841F480210160016841F00101016071
:1012E000286801E017E01DE040F080702860FFF7FB
:1012F00037FA044605E000BFFFF732FA001B022868
:1013000009D828688001F7D535E000BFFFF728FA33
:10131000001B022802D90320BDE8F09F2868800145
:10132000F4D428E039680128D8F8000021D0A26A56
:1013300001F0030393421CD1E26AC1F305118A4212
:1013400017D1216BC0F30802491E8A4211D1616B8B
:10135000C0F34622491E91420BD1A16BC0F3064255
:10136000491E914205D1E16BC0F30660491E8142DE
:1013700001D00120D0E70020CEE700002C44025825
:101380007047704770470000F0B590F83C20012A84
:101390003BD01F4E012480F83C40022280F83D20C3
:1013A00002681C4D5368B242D2F808C001D0AA426C
:1013B00003D14F6823F470033B430F6823F070039D
:1013C0001F4357600268B24213D0B2F1804F10D071
:1013D000114B9A420DD0114B9A420AD0104B9A42AF
:1013E00007D0AA4205D00F4B9A4202D00E4B9A4228
:1013F00004D189682CF0800319439160002180F8A2
:101400003D4080F83C100846F0BD0220F0BD0000D1
:1014100000000140000401400004004000080040BA
:10142000000C0040001800400040014010B50400CE
:1014300003D094F83D0010B107E0012010BD00205A
:1014400084F83C00204600F023F8022084F83D0098
:101450002068211D00F0C8FC012084F8480084F8B1
:101460003E0084F83F0084F8400084F8410084F88E
:10147000420084F8430084F8440084F8450084F86E
:10148000460084F8470084F83D00002010BD0000AD
:1014900008B500680649884208D10648016841F04D
:1014A00010010160006800F01000009008BD00000D
:1014B00000100040E844025890F83D10012901D086
:1014C00001207047144B0222016880F83D209942A8
:1014D00014D0B1F1804F11D0104881420ED0104885
:1014E00081420BD00F48814208D00F48814205D07D
:1014F0000E48814202D00E48814207D188680D4AC9
:101500001040062806D0B0F5803F03D0086840F0B0
:101510000100086000207047000001400004004006
:1015200000080040000C004000040140001800408A
:10153000004001400700010090F83D10012901D052
:1015400001207047174A022180F83D100168CB68DE
:1015500043F00103CB600068904214D0B0F1804F9B
:1015600011D0114988420ED0104988420BD0104941
:10157000884208D00F49884205D00F49884202D0DE
:101580000E49884207D181680D4A1140062906D0CC
:10159000B1F5803F03D0016841F0010101600020F6
:1015A00070470000000001400004004000080040B7
:1015B000000C0040000401400018004000400140C1
:1015C00007000100016841F211130A6A1A4207D1AB
:1015D0000A6A9B101A4203D10A6822F001020A60CB
:1015E000012180F83D1000207047704770B5044617
:1015F000006800250169C943890715D4C168C9433A
:10160000890711D4EA1E02610121217720688069CF
:101610008007204602D0FFF7E8FF04E000F0A7F8BB
:10162000204600F0A5F8257720680169C9434907DD
:1016300017D4C168C943490713D402216FF00402CB
:10164000026121772068806910F4407F204602D033
:10165000FFF7CBFF04E000F08AF8204600F088F89E
:10166000257720680169C943090716D4C168C943B1
:10167000090712D404216FF0080202612177206863
:10168000C0698007204602D0FFF7AFFF04E000F0FA
:101690006EF8204600F06CF8257720680169C94390
:1016A000C90617D4C168C943C90613D408216FF00D
:1016B0001002026121772068C06910F4407F204643
:1016C00002D0FFF792FF04E000F051F8204600F04E
:1016D0004FF8257720680169C943C90708D1C16857
:1016E000C943C90704D1891E0161204600F042F8B0
:1016F00020680169C943090609D4C168C9430906BC
:1017000005D46FF0800101612046FFF73AFE2068A2
:101710000169C943C90509D4C168C943090605D48B
:101720006FF4807101612046FFF72AFE206801698D
:10173000C943490609D4C168C943490605D46FF0B5
:1017400040010161204600F01FF820680169C9438B
:1017500089060BD4C168C943890607D46FF02001FC
:1017600001612046BDE87040FFF70CBE70BD7047B8
:101770007047000000680349884201D1FEF7F6BFB8
:1017800070470000000C00407047FEE7044908B5B0
:101790000A6802430A6009680140009108BD000020
:1017A000E044025810B5027B00234FF0B041002AFC
:1017B000026873D0EAB1447BE407D1F8804001D0DD
:1017C000144300E09443C1F88040427BD1F8844048
:1017D0009207026801D5144300E09443C1F88440A5
:1017E000827B32B1012A0DD0022A14D0032A16D0EE
:1017F000012342689AB3447BE407D1F8904017D0A4
:10180000144316E04C68026894434C600C6802680C
:1018100014430C60EDE70C680268944302E00C6826
:10182000026814430C604C68026814434C60E0E7A3
:101830009443C1F89040427BD1F8944092074268AB
:1018400001D5144300E09443C1F89440827B32B147
:10185000012A0DD0022A14D0032A16D0012382684F
:10186000A2B3447BE407D1F8A04018D0144317E09A
:101870004C6A426894434C620C6A426814430C629E
:10188000EDE70C6A4268944302E00C6A4268144334
:101890000C624C6A426814434C62E0E72DE09443CA
:1018A000C1F8A040427BD1F8A4409207826801D5DC
:1018B000144300E09443C1F8A440827B32B1012A72
:1018C00005D0022A0CD0032A0ED0012338E04C6C3C
:1018D000826894434C640A6C806802430A642FE077
:1018E0000C6C8268944302E00C6C826814430C64B4
:1018F0004A6C806802434A6422E0D1F880409443F5
:10190000C1F88040D1F8904042689443C1F89040BB
:10191000D1F8A04082689443C1F8A040D1F8844037
:1019200002689443C1F88440D1F8944042689443DB
:10193000C1F89440D1F8A42080688243C1F8A42063
:10194000184610BD4FF0B041D1F88810884301D03F
:101950000020704701207047F0B50A6892FAA2F2A1
:10196000B2FA82F44CE00125A54013EA050246D004
:101970004B68012B01D0022B10D1856802FB02F3CA
:101980008E685E4303EB43039D43354385604568A2
:10199000CE680B689D435E4335434560C56802FBD6
:1019A00002F30E6903FB06F703EB4306B5433D4321
:1019B000C5604D68022D1CD1FF2A0BD803FB02F530
:1019C000076A55434A696A43C5EB0515AF43174398
:1019D00007620EE0476A120AD1F814C002FB02F552
:1019E0005543554305FB0CF2C5EB0515AF431743B3
:1019F000476205684A68B54353431D430560641C4C
:101A00000A681346E240AED10020F0BD49430368A6
:101A10004A4301EB41018B43134303607047494341
:101A2000C3684A4301EB41018B431343C3607047D2
:101A30008A070B0C120F02F1B04293FAA3F310B510
:101A4000B3FA83F4D2F8083404F01F0423EA1141F6
:101A5000A0400143C2F8081410BD0000044A002150
:101A6000044810B500F0E6FA0349086010BD000014
:101A7000B4370008F71B000800000024F0B58BB055
:101A80000025182104A80095019502950395FEF7FD
:101A900020FD8020FFF77AFE0120FFF777FE334E0E
:101AA0004FF44010B0610124302008950321CDE9A6
:101AB0000615CDE9040404A93046FFF74DFF2C4973
:101AC0000020FFF7B5FF2B490020FFF7B1FF4020B2
:101AD0008DF80C40CDE900058DF80D4002276846D1
:101AE00002958DF80E70FFF75DFE80208DF80C409A
:101AF000CDE900058DF80D40684602958DF80E7011
:101B0000FFF750FE012230464021FFF788FF0122F7
:101B100030468021FFF783FF002230464021FFF747
:101B200075FF002230468021FFF770FF12480068E1
:101B3000C0F30220C0F10701042900D90421021DCD
:101B4000072A01D2002000E0C01E0C4A8C40641E0F
:101B500004F005018140080182F800044FF0E02103
:101B60004FF40000C1F800010BB0F0BD00000258B6
:101B70000100000F010000F00CED00E017E000E0B4
:101B80003EB5104800244FF6FF710D4BEF22009434
:101B900001940294C0E902418461C0E90032FFF778
:101BA00045FC08B1FEF7D3FD06486946009402944F
:101BB000FFF7EAFB002801D0FEF7C9FD3EBD00009B
:101BC00000100040A0000024FEE70000054A014686
:101BD00010B51070104600F008F8BDE8104001483C
:101BE000FEF730BD04000024FEE70A09427001F050
:101BF0000F01817070474FF47A749220FFF7E6FF6F
:101C0000204600F0DBF9F8E74FF0E02010B500695E
:101C100001F016FC012803D0BDE8104001F03AB9EC
:101C200010BD000070B59CB04C216846FEF751FC19
:101C3000202113A8FEF74DFC0220FEF7B3FE2D492C
:101C400000242D480A6822F001020A600A6802682E
:101C500042F440420260026802F440421B92026871
:101C60009204FCD5254A136843F0020313601268FE
:101C700002F002021B92026842F4404202600268D3
:101C80000A6842F001020A60096801F001011B9133
:101C900001688904FCD50DF1280C0220099005216A
:101CA000C0228CE80700C3030F9008250D90012681
:101CB0000E90CDE91054CDE9006368461294FFF709
:101CC000C7F808B172B6FEE740201A903F21030121
:101CD000CDE916500322CDE9180313AB13A883E80E
:101CE00016000421FEF788FE002801D072B6FEE738
:101CF0001CB070BD2C04005818480258F444025817
:101D00002C48F0B52C4A016841F47001016010685C
:101D100000F00F00072804D2106820F00F00C01D4B
:101D2000106026490020254C10340B68244D43F0E8
:101D300001030B6020600B682B400B60136803F0FD
:101D40000F03072B04D9136823F00F03DB1D136067
:101D50001A4C1C4A18341C4B261D371D2060174C8A
:101D60001A4D28343060261D3860371D23603B1D16
:101D700035601C1D3A60251D2E1D1860331D226024
:101D80002860326018600A680C4B114C22F48022E3
:101D900060330A60186020686FF30F00B0F1005FD5
:101DA00003D20C490120C1F8080143F2D2000A49CC
:101DB0000860F0BD88ED00E00020005200440258A9
:101DC0007FEDF6EA80020101000202020000FF013D
:101DD0000010005C00800051004000520148FFF7F5
:101DE00005BC0000EC0000242DE9F047274B4FF024
:101DF000804A274D02689842264E274F274C09D02B
:101E0000504507D0A84205D0B04203D0B84201D017
:101E1000A04205D1D1F804C022F070024CEA0202BF
:101E2000DFF87CC0DFF87C809842DFF87C900FD030
:101E300050450DD0A8420BD0B04209D0B84207D0CF
:101E4000A04205D0604503D0404501D0484503D1AC
:101E5000CD6822F440722A434D6922F080022A4361
:101E6000026098428A68C2620A68826207D0A04211
:101E700005D0604503D0404501D0484501D10969EE
:101E8000016301214161BDE8F087000000000140CD
:101E90000004004000080040000C00400004014025
:101EA000004001400044014000480140FEE70907AE
:101EB00000284FEA116104DB00F1E02080F80014F3
:101EC000704700F00F0000F1E02080F8141D70470B
:101ED0001FB500240094019402940394FEF7F0FCD3
:101EE00001208DF80C001F218DF8081087228DF835
:101EF00009208DF80D008DF8000068468DF80A4025
:101F00008DF80E408DF8014001948DF80B408DF84E
:101F10000F40FEF7A7FC0420FEF7E0FC2549086807
:101F2000800311D4BFF34F8FBFF36F8F224804603B
:101F3000BFF34F8FBFF36F8F086840F40030086025
:101F4000BFF34F8FBFF36F8F0868C00323D41948C6
:101F500070300460BFF34F8F001F43F6FF740068BA
:101F6000154D1035C0F34E32C0F3C90304EA4216D2
:101F7000184600BF46EA80772F60401EFAD2521EF4
:101F8000F4D2BFF34F8F086840F480300860BFF38D
:101F90004F8FBFF36F8FFEF7F1FBFFF743FEFFF7A5
:101FA0006DFDFFF7EDFD00F017F8FFF757FD00F0AE
:101FB00025F8FEE714ED00E050EF00E010B5EFF378
:101FC000058111B16FF0050404E04FF0000408B181
:101FD00000F000FE204610BDEFF3058010B16FF059
:101FE000050070470449086810B14FF0FF30704792
:101FF00001220A60002070477000002410B5EFF342
:10200000058010B16FF0050010BD08480168012976
:1020100002D04FF0FF3010BD054A002182F8141D98
:102020000221016000F03EFE002010BD700000247F
:102030000BE000E02DE9FF414FEA01034FF00005FE
:10204000EFF30581039561BB58B34FF080064FF065
:1020500018014FF000044AB3176807B13C4697696E
:102060001FB139467F1E382F02D21779FF0703D0E0
:10207000002004B0BDE8F081576907B1BE08D2F86E
:1020800008C0BCF1000F0DD0D5685C2D18D31269C3
:102090003AB137B18DE806103246214601F0A5F974
:1020A00003900DE0D7685FB912694AB903AACDE978
:1020B0000012B2B2214601F06BF9012800D003955D
:1020C0000398D6E72DE9F041134C0F460546E66824
:1020D0002068001D00F048FC681C07D137B121685A
:1020E000BDE8F0410D48091D00F090BC2068354462
:1020F000B5424560216805D2A06B091DBDE8F041DD
:1021000000F06CBC606B091D00F068FCA06A8542A1
:1021100000D2A562BDE8F08120000024280600243A
:102120002DE9F041054600F07DFC2D4C2D4FA068B7
:10213000401CA060206810B1606930B32BE02560BE
:10214000A068012827D1002606EB860007EB800057
:1021500000F036FC761C382EF6D3234800F030FC15
:102160002148143000F02CFC1F48283000F028FCD7
:102170001D483C3000F024FC1B48503000F020FC8F
:10218000194860631430A06305E0E86A2168C96AF1
:10219000814200D82560606A401C60626864E86A19
:1021A0002169884200D9206100EB8000291D07EBDE
:1021B000800000F02BFC00F055FC606900280CD07A
:1021C0002068E96AC06A884207D208494FF0805007
:1021D0000860BFF34F8FBFF36F8FBDE8F081000041
:1021E0002000002478010024D805002404ED00E03C
:1021F00038B500F017FC104C2068C8B90F4800F043
:10220000DFFB0E48143000F0DBFB0C490020E160DE
:1022100014312161A1F582730090A1F1B402102163
:102220000A2000F04DFE206010B105A100F09CFCDA
:10223000BDE8384000F016BC5C0000242C070024E8
:10224000546D72510000000030B4026C0B46002A3D
:102250000BD0D0E902411144C160A14201D3016811
:10226000C160184630BCFEF7E7B830BC70472DE9B6
:10227000F041856B1746026C0446002682B1C7B157
:10228000E068FEF7D9F8E168206C2268091AE1607D
:10229000914202D2A168081AE060022F16D017E01E
:1022A0002068A8B9A06801F043F906460020A060A4
:1022B0000EE06068FEF7C0F8D4E90101226C10441A
:1022C0006060884204D32068606001E005B16D1E43
:1022D0006D1CA5633046BDE8F08110B5044690F84A
:1022E000590058B101280CD002280FD0502080F39B
:1022F0001188BFF34F8FBFF36F8FFEE7206B00F0A5
:10230000C5FB2046BDE8104000F0C0BB10BD00007A
:1023100011484FF4705110B5420706D00E49C01D48
:1023200020F00700411AC1F570510C4C0023014404
:102330000839A4F1180221F00701C4E900030C1ABE
:1023400011604B600B60C0E9001494604FF00041D5
:102350005460516110BD00000C0E00248C0000245C
:10236000144E4FF08058144CDFF85090A6F29C4762
:1023700012E000BF00F056FBF068C568281D00F0B1
:10238000F3FAA068401EA0606068401E606000F024
:1023900069FB2846FFF7A1FF60680028EAD138688A
:1023A0000128F9D9C9F80080BFF34F8FBFF36F8FB1
:1023B000F2E70000140600242000002404ED00E0F1
:1023C00070B51D46049C51B1C4F80020C4E90F014A
:1023D0000121204600F0A8FD84F84C5070BD246017
:1023E000F4E72DE9F05F88469A4691001546DDE94D
:1023F0000B940A9EA5228346206BFEF762F8206BA1
:102400006FF0030101EB8501084420F0070778070E
:1024100007D0502080F31188BFF34F8FBFF36F8F29
:10242000FEE7B8F1000F4FF000050ED00020221893
:1024300018F8001082F8341018F8001011B1401C80
:102440001028F4D384F8435001E084F83450382E37
:1024500000D33726E662201DC4E9136500F0BBFAFD
:1024600004F1180000F0B7FA6565C6F13800A06104
:1024700084F858505246246159463846646200F048
:102480005BFAB9F1000F206001D0C9F80040BDE847
:10249000F09F000030B5114900E011460A68824201
:1024A000FBD34B685C18844203D14468084623443C
:1024B0004B6043681D18954209D1084C183C2468AC
:1024C000A24209D052681A4442600A681268026047
:1024D000814200D0086030BD0460F9E78C00002420
:1024E00070B50D4D914241604FF00004006106D877
:1024F0008169D21A8A4206D2011D286907E09A42F0
:1025000003D2994201D3012403E0011DE86800F0E1
:1025100065FA204670BD00005C00002410B504463A
:1025200000F080FAA06B28B15FF0000400F09AFA86
:10253000204610BD0124F9E730B53C4D89B06BE071
:102540000498002806DA059ADDE906019047049808
:10255000002861DB069C606910B1201D00F004FAC0
:1025600003A800F0D5F8024604980A2854D2DFE800
:1025700000F00505052D304705052D3094F828009D
:1025800040F0010084F82800A06905990B46014439
:102590002046FFF7A5FF50B3216A2046884794F8EC
:1025A0002800400738D50020009005980023A16935
:1025B00042181946204601F0C3F8C0B9502080F3F4
:1025C0001188BFF34F8FBFF36F8FFEE794F8280099
:1025D0001EE094F8280040F0010084F828000598D7
:1025E000A06128B1811813462046FFF779FF13E058
:1025F000502080F31188BFF34F8FBFF36F8FFEE73A
:1026000094F82800810703D4204600F03FFA03E045
:1026100020F0010084F828002868002204A900F0B6
:10262000DDFD00288CD109B030BD00005C00002425
:102630002DE9FC410F46054600F078FB01A800F0AB
:1026400067F80446019818B100F0E8FFBDE8FC8186
:10265000254EAFB130690068D0B300273068291B20
:102660003A4600F095FA00F0D9FF0028EED11F4954
:102670004FF080500860BFF34F8FBFF36F8FE5E7D7
:10268000A542EBD800F0CAFFF0682746C068C468CE
:10269000201D00F069F994F82800410719D5A069B8
:1026A0002B463A4641192046FFF71AFFA8B10020F1
:1026B0002A46034601460090204601F041F860B9E1
:1026C000502080F31188BFF34F8FBFF36F8FFEE769
:1026D00007E020F0010084F82800216A204688479E
:1026E000B4E70127BAE700005C00002404ED00E035
:1026F0000648416B096829B1416BC968C9684968D6
:10270000816270474FF0FF31FAE70000200000249B
:1027100070B5054600F0A2FE064E0446B06884423D
:1027200003D200F009F8012000E0002028602046D4
:10273000B46070BD5C000024F8B5194D20E0C0689D
:10274000C4680668201D00F00FF9216A20468847FA
:1027500094F82800400713D5A0693044B04206D948
:102760002461211D6060E86800F038F908E000206D
:102770003246034601460090204600F0E1FF38B1A2
:10278000E86801680029DAD12969C5E90310F8BDB4
:10279000502080F31188BFF34F8FBFF36F8FFEE798
:1027A0005C00002408484068401C4FF0500080F353
:1027B000118804D0BFF34F8FBFF36F8FFEE7BFF3D5
:1027C0004F8FBFF36F8FFEE794000024074CE06843
:1027D000016841B1C0680021D0F80000FFF728FF70
:1027E000FFF7AAFEF3E701210020F7E75C000024D1
:1027F0002DE9F041044600F015F994F9455004F133
:10280000240609E0606A48B1304600F0CFFE08B106
:1028100000F00EFA6D1E6DB2002DF3DC4FF0FF36A6
:1028200084F8456000F01EF900F0FCF894F944507B
:1028300004F1100709E0206948B1384600F0B6FEFF
:1028400008B100F0F5F96D1E6DB2002DF3DC84F8CF
:102850004460BDE8F04100F005B900002DE9F04109
:102860000027044600F062FA324E306808B9FFF7DC
:102870004FFD706904424ED1C4B3083460070ED0D6
:1028800004F00700C0F108000444600707D050209E
:1028900080F31188BFF34F8FBFF36F8FFEE72CB328
:1028A0007068844237D82348183001460D6801E02B
:1028B00028460D466968A14202D229680029F7D14D
:1028C00031688D4227D00768296801600837686839
:1028D000011B10290FD92819420708D0502080F376
:1028E0001188BFF34F8FBFF36F8FFEE713E0416096
:1028F0006C60FFF7CFFD69687068401A7060B2685D
:10290000904200D2B060002072691143C5E9000115
:10291000F068401CF06000F081FE780707D050207E
:1029200080F31188BFF34F8FBFF36F8FFEE73846F8
:10293000BDE8F0817400002470B5041F094E231F08
:102940004FF0807521F0010125601C1F1960A0F176
:1029500020010B1F266044380A606FF002051D60DD
:1029600070BD0000A5270008D0E9013201699A6016
:10297000D0E901235A604A68824201D182684A60E4
:10298000002202610868401E086008687047000065
:1029900010B5044C8023046004F15C0008601360EF
:1029A00010BD00005407002410B5044C4FF4807390
:1029B000046004F15C000860136010BDB0090024DD
:1029C0004FF0FF3300F108010022C0E9011302605B
:1029D000C1600161704700210161704730B50B682B
:1029E0005A1C02D000F1080202E0026904E022460B
:1029F000546825689D42FAD953684B6099608A6093
:102A0000516008610168491C016030BD42684A603C
:102A100093688B6093685960916008610168491CF4
:102A200001607047502080F31188BFF34F8FBFF3D0
:102A30006F8F0A494868401C486001280CD108483B
:102A4000006810F0FF0F07D0502080F31188BFF30B
:102A50004F8FBFF36F8FFEE7704700009400002494
:102A600004ED00E00849486828B1401E486001D1E3
:102A700080F311887047502080F31188BFF34F8F87
:102A8000BFF36F8FFEE700009400002470B50028AC
:102A90002AD0164DA0F1080461686869014207D187
:102AA000502080F31188BFF34F8FBFF36F8FFEE785
:102AB00022683AB1502080F31188BFF34F8FBFF3E3
:102AC0006F8FFEE78143616000F030F960686968EC
:102AD000084468602046FFF7DDFC2869401C286137
:102AE000BDE8704000F09ABD70BD00007400002485
:102AF0004FF0E020002101614FF47A7281610723D9
:102B000003490968B1FBF2F1491E41610361704755
:102B10001800002410B5FDF76BFC114910280ED3E6
:102B200000F1E0200A7890F8F003904207D250209C
:102B300080F31188BFF34F8FBFF36F8FFEE7094813
:102B40008968006800F4E060884207D9502080F36B
:102B50001188BFF34F8FBFF36F8FFEE710BD0000EA
:102B6000940000240CED00E0084B5FF0000210B56B
:102B700053F832401CB1521C082AF9D310BD03EBA4
:102B8000C20443F83210606010BD00003801002418
:102B900070B515460E460446FFF744FF94F94410FD
:102BA0000020491C01D184F8440094F94510491CC7
:102BB00001D184F84500FFF755FFA06B28B904F157
:102BC00024002A46314600F051F82046BDE8704006
:102BD000FFF70EBE020010B514D00F48006B38B1DD
:102BE000502080F31188BFF34F8FBFF36F8FFEE744
:102BF00000F09CF800211046FFF764FA00F00EFD8B
:102C0000002807D105494FF080500860BFF34F8F6F
:102C1000BFF36F8F10BD00002000002404ED00E022
:102C200002490A6A0260C9684160704720000024B6
:102C300001490120C86170472000002410B50C46EE
:102C400050B1094909681831FFF7C8FE2046BDE8B0
:102C500010400121FFF736BA502080F31188BFF3EE
:102C60004F8FBFF36F8FFEE72000002470B514462E
:102C70000D4668B10A4909681831FFF7C7FE0CB163
:102C80004FF0FF3521462846BDE87040FFF71ABADD
:102C9000502080F31188BFF34F8FBFF36F8FFEE793
:102CA0002000002430B587B0002405AA04A90394AD
:102CB00003A80494FFF76CFEDDE9030100940023F0
:102CC000CDE90110174815A1059A00F08EFB164DAD
:102CD0000028E8621FD000F003FD012809D0401C45
:102CE00019D1502080F31188BFF34F8FBFF36F8F3E
:102CF000FEE7502080F31188BFF34F8FBFF36F8F33
:102D000001214FF0FF30A8626961EC6007B0BDE8B7
:102D1000304000F045B807B030BD000049444C4594
:102D20000000000061230008200000240248016B1D
:102D3000491C01637047000020000024164810B5AC
:102D4000016B11B10121C16110BD0021C161134AA4
:102D5000016901E0B9B1491E01EB810352F823304A
:102D6000002BF7D001EB810302EB830202F1080490
:102D700053685B685360A34201D15B685360DA68B3
:102D80000260016110BD502080F31188BFF34F8FA6
:102D9000BFF36F8FFEE700002000002478010024BD
:102DA00037481CB5374902688A4207D1502080F362
:102DB0001188BFF34F8FBFF36F8FFEE73149006873
:102DC000491E884207D1502080F31188BFF34F8FEE
:102DD000BFF36F8FFEE72C49FF200A78019208703D
:102DE00008788DF800009DF800209DF8000002F0A2
:102DF000F002824207D0502080F31188BFF34F8F3A
:102E0000BFF36F8FFEE79DF8002007201F4C02F0F4
:102E100050022270A06005E09DF8002052008DF85D
:102E20000020401E9DF800201206F5D40328A06063
:102E300007D0502080F31188BFF34F8FBFF36F8FFF
:102E4000FEE74FF44070A060019808700C482030F5
:102E5000016841F470010160016841F07041016056
:102E6000FFF746FE00206060FDF78AFA0848016817
:102E700041F040410160FDF76FFA00201CBD0000E9
:102E800000ED00E071C20F4100E400E09400002476
:102E900034EF00E0502010B580F31188BFF34F8F5E
:102EA000BFF36F8F00F0E0FA18B104494FF0805083
:102EB0000860002080F3118810BD000004ED00E0E0
:102EC000F8B5069D18B153B1CAB181B120E05020C8
:102ED00080F31188BFF34F8FBFF36F8FFEE7502051
:102EE00080F31188BFF34F8FBFF36F8FFEE7502041
:102EF00080F31188BFF34F8FBFF36F8FFEE739B1B7
:102F0000502080F31188BFF34F8FBFF36F8FFEE720
:102F100050241C46012683F8466000932B46FFF799
:102F20004FFA2046F8BD00002DE9F04704008A461C
:102F300029D0FFF777FD21680025D4E90F23D4F8C5
:102F400040C004F1100810460E46401E4FF0FF39F5
:102F500002FB031200FB0C10BAF1000FA5636660C0
:102F600084F8449084F84590C4E9022013D0404688
:102F7000FFF726FD04F12400FFF722FDFFF772FDA5
:102F80000120BDE8F087502080F31188BFF34F8FF8
:102F9000BFF36F8FFEE720690028EFD0404600F0B6
:102FA00005FB0028EAD004494FF080500860BFF3C9
:102FB0004F8FBFF36F8FE1E704ED00E02DE9FF478E
:102FC00004001D4682B08A464FF0000803D0BAF1D3
:102FD000000F08D011E0502080F31188BFF34F8F0D
:102FE000BFF36F8FFEE7206C38B1502080F311885B
:102FF000BFF34F8FBFF36F8FFEE7022D0AD1E06B57
:10300000012807D0502080F31188BFF34F8FBFF302
:103010006F8FFEE700F014FA3F4F4FF080564FF0ED
:10302000000948B9049838B1502080F31188BFF3E3
:103030004F8FBFF36F8FFEE7FFF7F4FCA06BE16BE0
:10304000884207D3022D05D00498D0B1B8F1000F03
:103050001AD01EE02A4651462046FFF708F9616A59
:1030600019B104F1240000F0A1FA20B13E60BFF3D1
:103070004F8FBFF36F8FFFF7F5FC012006B0BDE85F
:10308000F087FFF7EFFC22E06846FFF7C9FD4FF03D
:103090000108FFF7E7FCFFF749FEFFF7C3FC94F9CF
:1030A0004400401C01D184F8449094F94500401C30
:1030B00001D184F84590FFF7D5FC04A9684600F0DB
:1030C0002BF930B12046FFF793FB00F0A7FA002060
:1030D000D4E7FFF7A7FCA06BE16B884213D1FFF7A1
:1030E000C1FC049904F11000FFF7A8FD2046FFF78A
:1030F0007FFB00F093FA00289ED13E60BFF34F8F14
:10310000BFF36F8F98E7FFF7ADFC2046FFF770FB2A
:1031100000F084FA90E7000004ED00E02DE9F047AC
:1031200004001F469046894603D0B9F1000F08D02D
:1031300011E0502080F31188BFF34F8FBFF36F8FE2
:10314000FEE7206C38B1502080F31188BFF34F8F19
:10315000BFF36F8FFEE7022F0AD1E06B012807D083
:10316000502080F31188BFF34F8FBFF36F8FFEE7BE
:10317000FFF7D0FC5020EFF3118680F31188BFF3E6
:103180004F8FBFF36F8FA06BE16B884206D3022F86
:1031900004D0002086F31188BDE8F08794F94550EB
:1031A000A06B3A4649462046FFF761F8681C04D0F8
:1031B0006D1C84F845500120ECE7606A0028FAD0C5
:1031C00004F1240000F0F2F90028F4D0B8F1000F67
:1031D000F1D00121C8F80010EDE700002DE9F74714
:1031E00004008A4683B04FF0000603D0BAF1000F06
:1031F00008D011E0502080F31188BFF34F8FBFF348
:103200006F8FFEE7206C38B1502080F31188BFF338
:103210004F8FBFF36F8FFEE700F012F9DFF8F480F5
:103220004FF080574FF0000948B9059838B1502049
:1032300080F31188BFF34F8FBFF36F8FFEE7FFF767
:10324000F1FBA56BC5B151462046FEF7FDFF6D1E93
:10325000A563206950B104F1100000F0A7F928B16E
:10326000C8F80070BFF34F8FBFF36F8FFFF7FAFB03
:10327000012006B0BDE8F087059808B11EB106E050
:10328000FFF7F0FB27E06846FFF7CAFC0126FFF7CF
:10329000E9FBFFF74BFDFFF7C5FB94F94400401C29
:1032A00001D184F8449094F94500401C01D184F880
:1032B0004590FFF7D7FB05A9684600F02DF80028D8
:1032C00020460AD0FFF794FA00F0A8F92046FFF74D
:1032D00025F90028B3D00020CBE7FFF71FF990B104
:1032E000059904F12400FFF7A9FC2046FFF780FAB6
:1032F00000F094F90028A2D1C8F80070BFF34F8FF6
:10330000BFF36F8F9BE72046FFF772FA00F086F954
:1033100095E7000004ED00E02DE9F04105000C46C2
:1033200012D0CCB1FFF77EFB184E2068F268471C24
:103330006B68A2EB030117D02F68366AB74215D02D
:10334000934213D801251CE0502080F31188BFF36D
:103350004F8FBFF36F8FFEE7502080F31188BFF3CC
:103360004F8FBFF36F8FFEE700250AE0884205D933
:10337000401A20602846FFF753FCF5E70020206044
:103380000125FFF76FFB2846BDE8F08120000024EF
:103390002DE9FF5F994616468A4683469000DDE98F
:1033A0000E87FFF75BFA05001CD05C20FFF756FA8A
:1033B000040014D00020256384F859004B46CDE961
:1033C0000087CDE90240324651465846FFF709F8DA
:1033D0002046FEF7A5FE012004B0BDE8F09F284678
:1033E000FFF754FB4FF0FF30F6E7F0B585B0DDE9AD
:1033F0000B740A9DA7B1DCB15C262763022684F812
:103400005960002703970DF1100C0095CDE901C418
:10341000FEF7E7FF2046FEF783FE049805B0F0BDF7
:10342000502080F31188BFF34F8FBFF36F8FFEE7FB
:10343000502080F31188BFF34F8FBFF36F8FFEE7EB
:103440000548416919B1006B18B10020704701208F
:103450007047022070470000200000240148C06827
:1034600070470000200000242DE9F0412E4C206B15
:10347000002728B1A069401CA0613846BDE8F08152
:10348000E668761CE66013D1606B006838B15020A6
:1034900080F31188BFF34F8FBFF36F8FFEE7606B30
:1034A000A16B6163A063206A401C2062FFF720F9D2
:1034B000DFF87880A06A864209D3606B0068A0B10B
:1034C000606BC068C5686868864211D2A0622068D7
:1034D000C06A00EB800158F82100012800D90127BB
:1034E000E0690028C9D00127C7E74FF0FF30EDE7BA
:1034F000281DFFF739FAA86A18B105F11800FFF77F
:1035000033FAE86A2169884200D9206100EB800122
:1035100008EB8100291DFFF779FA2068E96AC06A83
:103520008142CAD30127C8E7200000247801002483
:1035300070B504464FF0000190B31A4D28688442DC
:1035400007D0502080F31188BFF34F8FBFF36F8FE8
:10355000FEE7206D38B1E36C401EE26A20659A42B6
:103560001ED040B11CE0502080F31188BFF34F8F74
:10357000BFF36F8FFEE7201DFFF7F6F9E06CC0F197
:103580003801A161E0622969884200D9286100EB15
:103590008000054901EB8000211DFFF737FA01216A
:1035A000084670BD200000247801002470B5C06872
:1035B000C46854B104F118000646FFF7D5F9144D5C
:1035C000286B50B11348314615E0502080F3118824
:1035D000BFF34F8FBFF36F8FFEE7201DFFF7C4F9D6
:1035E000E06A2969884200D9286100EB80000A4915
:1035F00001EB8000211DFFF709FAE06A2968C96A1A
:10360000884203D90121E961084670BD002070BDE0
:103610002000002400060024780100242DE9F04752
:103620002C4D286B0024274638B1FFF7FBF9286B97
:10363000401E2863286B40B147E0502080F311887A
:10364000BFF34F8FBFF36F8FFEE7234E0120A968B2
:10365000D9B3A6F5916980463068E0B1F068C468D6
:1036600004F11800FFF780F9201DFFF77DF9E06AEB
:103670002969884200D9286100EB800109EB8100AB
:10368000211DFFF7C3F9E06A2968C96A8842E3D3BC
:10369000C5F81C80E0E70CB1FFF72AF8AC694CB123
:1036A0004FEA0806FFF7E0FE00B1EE61641EF9D1B3
:1036B0000020A861E86940B1084901274FF0805017
:1036C0000860BFF34F8FBFF36F8FFFF7CBF938461A
:1036D000BDE8F087200000240006002404ED00E08F
:1036E00010B586B0FEF784FD114C2068B8B10020FB
:1036F000039005AA049004A903A8FFF755F9DDE992
:103700000321022000238DE807000C4809A1059A37
:10371000FFF76BFE606010B106B0012010BD5020B5
:1037200080F31188BFF34F8FBFF36F8FFEE7000068
:103730005C000024546D722053766300CD2700088E
:103740002DE9FF411E46134602004FF000000A9D7E
:1037500016D0144C2768002F0FD006290292CDE90D
:10376000001317DAFFF76CFE02284FF000030FD0AA
:10377000002220686946FFF721FC04B0BDE8F08113
:10378000502080F31188BFF34F8FBFF36F8FFEE798
:103790002A46EEE70023324669463846FFF7BEFC6C
:1037A000EBE700005C0000244FF04070E1EE100AEF
:1037B00070470000E837000800000000000000002B
:1037C00000000000000000000002000018000000DF
:1037D00000000000000000000000000001020304DF
:1037E000010203040607080964656661756C745478
:1037F00061736B001438000800000024A000000072
:10380000D4020008B4380008A0000024D04F000003
:10381000F0020008000000000000000000000000AE
:103820000100000010000000000000000090D00324
:103830000090D00300000000000000000000000025
:103840000000000000000000000000000000000078
:103850000000000000000000000000000000000068
:103860000000000000000000000000000000000058
:103870000000000000000000000000000000000048
:103880000000000000000000000000000000000038
:103890000000000000000000000000000000000028
:1038A000000000000000000000000000AAAAAAAA70
:0438B0000000000014
:040000050800029954
:00000001FF
